{
  "address": "0x0DCd1Bf9A1b36cE34237eEaFef220932846BCD82",
  "abi": [
    {
      "inputs": [
        {
          "internalType": "uint256",
          "name": "_balance",
          "type": "uint256"
        }
      ],
      "stateMutability": "payable",
      "type": "constructor"
    },
    {
      "inputs": [
        {
          "internalType": "address",
          "name": "",
          "type": "address"
        },
        {
          "internalType": "bytes",
          "name": "",
          "type": "bytes"
        }
      ],
      "name": "getVoiceCredits",
      "outputs": [
        {
          "internalType": "uint256",
          "name": "",
          "type": "uint256"
        }
      ],
      "stateMutability": "view",
      "type": "function"
    }
  ],
  "transactionHash": "0x2184f4d569e82b1b1442623e6103b8a95516f5780976c7b54d0a3611562fc676",
  "args": [
    99
  ],
  "numDeployments": 1,
  "solcInputHash": "d4edc97ed9e4f18935e5ac94c4119edc",
  "bytecode": "0x6080601f61016b38819003918201601f19168301916001600160401b038311848410176100515780849260209460405283398101031261004c575160005560405161010390816100688239f35b600080fd5b634e487b7160e01b600052604160045260246000fdfe60806004361015600e57600080fd5b6000803560e01c63b36543a914602357600080fd5b3460ca57604036600319011260ca576004356001600160a01b0381160360ca5767ffffffffffffffff9160243583811160b2573660238201121560b25780600401359380851160b657601f8501601f19908116603f011683019081118382101760b657604052838252366024858301011160b25783839260209560248794018483013701015254604051908152f35b8280fd5b634e487b7160e01b84526041600452602484fd5b80fdfea2646970667358221220fbd244b178588ab5fd724bdb55b9e49f5f26e71320a642bca42b5af7c395d6a364736f6c63430008180033",
  "devdoc": {
    "kind": "dev",
    "methods": {
      "constructor": {
        "params": {
          "_balance": "the balance to be returned by getVoiceCredits"
        }
      },
      "getVoiceCredits(address,bytes)": {
        "returns": {
          "_0": "balance"
        }
      }
    },
    "title": "ConstantInitialVoiceCreditProxy",
    "version": 1
  },
  "userdoc": {
    "kind": "user",
    "methods": {
      "constructor": {
        "notice": "creates a new ConstantInitialVoiceCreditProxy"
      },
      "getVoiceCredits(address,bytes)": {
        "notice": "Returns the constant balance for any new MACI's voter"
      }
    },
    "notice": "This contract allows to set a constant initial voice credit balance for MACI's voters.",
    "version": 1
  },
  "storageLayout": {
    "storage": [
      {
        "astId": 7199,
        "contract": "maci-contracts/contracts/initialVoiceCreditProxy/ConstantInitialVoiceCreditProxy.sol:ConstantInitialVoiceCreditProxy",
        "label": "balance",
        "offset": 0,
        "slot": "0",
        "type": "t_uint256"
      }
    ],
    "types": {
      "t_uint256": {
        "encoding": "inplace",
        "label": "uint256",
        "numberOfBytes": "32"
      }
    }
  }
}