{
  "address": "0x4ed7c70F96B99c776995fB64377f0d4aB3B0e1C1",
  "abi": [
    {
      "inputs": [],
      "name": "MESSAGE_DATA_LENGTH",
      "outputs": [
        {
          "internalType": "uint8",
          "name": "",
          "type": "uint8"
        }
      ],
      "stateMutability": "view",
      "type": "function"
    },
    {
      "inputs": [
        {
          "internalType": "address",
          "name": "_verifier",
          "type": "address"
        },
        {
          "internalType": "address",
          "name": "_vkRegistry",
          "type": "address"
        },
        {
          "internalType": "address",
          "name": "_poll",
          "type": "address"
        },
        {
          "internalType": "address",
          "name": "_owner",
          "type": "address"
        },
        {
          "internalType": "enum DomainObjs.Mode",
          "name": "_mode",
          "type": "uint8"
        }
      ],
      "name": "deploy",
      "outputs": [
        {
          "internalType": "address",
          "name": "messageProcessorAddr",
          "type": "address"
        }
      ],
      "stateMutability": "nonpayable",
      "type": "function"
    }
  ],
  "transactionHash": "0x4f38bf6ceea187b6cbde8483d3884dce26681cb751e40b3ab269f8a4d402e568",
  "args": [],
  "numDeployments": 1,
  "solcInputHash": "d4edc97ed9e4f18935e5ac94c4119edc",
  "bytecode": "0x6080806040523461001657611db0908161001c8239f35b600080fdfe60806040818152600436101561001457600080fd5b600091823560e01c9081633634487314610056575063683f3dc31461003857600080fd5b3461005257816003193601126100525760209051600a8152f35b5080fd5b9190503461018f5760a036600319011261018f576004356001600160a01b0381811691829003610167576024359381851680950361018b576044359282841680940361018757606435938385168095036101835760843590600282101561017f57611be7978885019367ffffffffffffffff998686108b87111761016b5791608095939187959361019487398452602084015288830152606082015203019086f0801561015d571692833b156101675782519163f2fde38b60e01b83526004830152848260248183885af1801561015d57610136575b6020848451908152f35b811161014957602093508152388061012c565b634e487b7160e01b84526041600452602484fd5b83513d87823e3d90fd5b8480fd5b634e487b7160e01b8c52604160045260248cfd5b8880fd5b8780fd5b8680fd5b8580fd5b8280fdfe610100601f62001be738819003918201601f19168301916001600160401b038311848410176200018c5780849260809460405283398101031262000187576200004881620001a2565b906200005760208201620001a2565b60606200006760408401620001a2565b920151916002831015620001875733156200016e5760008054336001600160a01b0319821681178355604051966001600160a01b039586949093859391908416907f8be0079c531659141344cd1fd0a4f28419497f9722a3daafe3b4186f6b6457e09080a31660a0521660c0521660805260e052611a2f9081620001b88239608051818181610389015281816103f80152818161044c015281816104b101528181610556015281816105a9015281816107e201528181610b8901528181610bdb01528181610e33015281816113e10152611435015260a05181818161078d015261121d015260c05181818161069701526112a4015260e05181818161066b01526112680152f35b604051631e4fbdf760e01b815260006004820152602490fd5b600080fd5b634e487b7160e01b600052604160045260246000fd5b51906001600160a01b0382168203620001875756fe6080604052600436101561001257600080fd5b60003560e01c80630cd3b91d146112d357806313fb89321461128e578063295a52121461124c5780632b7ac3f3146112075780633d6528a1146111e95780633dfb88b21461112357806358bfc379146110995780635bb939951461106157806362a361bb1461100a578063683f3dc314610fee578063715018a614610f955780637a38d18f14610f775780638763d0c414610f515780638da5cb5b14610f285780639cfced9714610e62578063a117527914610e1d578063b1a263d31461031b578063bea140b3146101ff578063d13181b8146101e1578063d1849f48146101985763f2fde38b1461010357600080fd5b34610193576020366003190112610193576004356001600160a01b0381811691829003610193576101326118df565b811561017a57600054826bffffffffffffffffffffffff60a01b821617600055167f8be0079c531659141344cd1fd0a4f28419497f9722a3daafe3b4186f6b6457e0600080a3005b604051631e4fbdf760e01b815260006004820152602490fd5b600080fd5b346101935760a03660031901126101935760643560ff81168103610193576084359060ff82168203610193576020916101d991604435602435600435611811565b604051908152f35b34610193576000366003190112610193576020600354604051908152f35b34610193576060366003190112610193573660231215610193576040516060810181811067ffffffffffffffff82111761030557604052606481368211610193576004905b8282106102f5576040516304b98e1d60e31b8152600085600483015b600383106102de57836020816064817368B1D87F95878fE05B998F19b66F4baba5De1aed5af480156102d25760009061029f575b602090604051908152f35b506020813d6020116102ca575b816102b96020938361135d565b810103126101935760209051610294565b3d91506102ac565b6040513d6000823e3d90fd5b600190825181526020809101920192019190610260565b8135815260209182019101610244565b634e487b7160e01b600052604160045260246000fd5b346101935761012036600319011261019357366043121561019357604051610100810181811067ffffffffffffffff82111761030557604052803661012411610193576024905b6101248210610e0d57826103746118df565b60408051634909229f60e01b815290816004817f00000000000000000000000000000000000000000000000000000000000000006001600160a01b03165afa9081156102d257600090600092610de9575b506103d09042611804565b1115610dd75760ff60005460a01c16610dc55760405163b5f38c8160e01b81526020816004817f00000000000000000000000000000000000000000000000000000000000000006001600160a01b03165afa9081156102d257600091610da6575b5015610d945760405163ac98e5df60e01b81526080816004817f00000000000000000000000000000000000000000000000000000000000000006001600160a01b03165afa9182156102d257600091600090600094610d2f575b5061049860ff84166116f3565b60405163bc14ee2b60e01b8152909390916060836004817f00000000000000000000000000000000000000000000000000000000000000006001600160a01b03165afa9283156102d257602493602091600091610d0d575b50604051631b9b8aa760e01b815260ff8416600482015294859182906001600160a01b03165afa9283156102d257600093610cd9575b508215610cc75760015415610b74575b60025460035460408051634f367f0f60e01b8152929892949190856004817f00000000000000000000000000000000000000000000000000000000000000006001600160a01b03165afa9081156102d257600095600092610b50575b5060405163bc14ee2b60e01b8152916060836004817f00000000000000000000000000000000000000000000000000000000000000006001600160a01b03165afa9687156102d2576004988c94600099610b0a575b50936105fc93879387936020978d35946113ba565b60405163194b1db960e21b815296909587919082906001600160a01b03165afa9485156102d257600095610ac2575b509060ff61063b818094166116f3565b60405163d88ff4f560e01b8152968216600488015293166024860152166044840152606483015261068f608483017f000000000000000000000000000000000000000000000000000000000000000061131e565b60008260a4817f00000000000000000000000000000000000000000000000000000000000000006001600160a01b03165afa9182156102d257600092610957575b506040516308adcb2560e21b815292909183916000600484015b6008821061093d575050506101406101048301526080610324830191602081518051610144870152015161016485015261072d60208201516101848601906119d9565b61074060408201516102048601906119d9565b61075360608201516102848601906119d9565b0151906101e061030484015281518091526020610344840192019060005b81811061091857505050610124820192909252602091819003817f00000000000000000000000000000000000000000000000000000000000000006001600160a01b03165afa9081156102d2576000916108e9575b50156108d45760408051634f367f0f60e01b81529290836004817f00000000000000000000000000000000000000000000000000000000000000006001600160a01b03165afa9283156102d2576000936108a1575b50818161088e575b50506001549060018201928383116108785783820291808304851490151715610878576004356003556000805460ff60a01b1916929091111560a01b60ff60a01b169190911790556000191461087857600155005b634e487b7160e01b600052601160045260246000fd5b61089791611804565b6002558281610823565b6108c491935060403d6040116108cd575b6108bc818361135d565b810190611397565b9050918361081b565b503d6108b2565b60405160016268f24f60e01b03198152600490fd5b61090b915060203d602011610911575b610903818361135d565b8101906116cd565b836107c6565b503d6108f9565b8251805185526020908101518186015287955060409094019390920191600101610771565b8251815286945060209283019260019290920191016106ea565b9091503d806000833e61096a818361135d565b60208282810103126101935781519167ffffffffffffffff8311610193576101e0838201838301031261019357604051928360a081011067ffffffffffffffff60a0860111176103055760a084016040526109c983830182840161190b565b84526109dc838301604083850101611978565b60208501526109f283830160c083850101611978565b6040850152610a0983830161014083850101611978565b60608501526101c081830101519267ffffffffffffffff841161019357808301601f85848601010112156101935783828401015192610a478461137f565b94610a55604051968761135d565b848652602086019383830160208760061b848487010101011161019357828101820160200194915b60208760061b828487010101018610610aa35750505050505050608082015290856106d0565b604060208094610ab58888018a61190b565b8152019601959250610a7d565b919094506020823d602011610b02575b81610adf6020938361135d565b810103126101935760ff61063b81610af781956116e5565b97939450505061062b565b3d9150610ad2565b6020959199509387938793610b396105fc9760603d606011610b49575b610b31818361135d565b8101906117c3565b50509b93975093509350936105e7565b503d610b27565b909550610b6c915060403d6040116108cd576108bc818361135d565b90948a610592565b60405163c17268d960e01b81526020816004817f00000000000000000000000000000000000000000000000000000000000000006001600160a01b03165afa9081156102d257600091610c95575b5060035560408051634f367f0f60e01b815290816004817f00000000000000000000000000000000000000000000000000000000000000006001600160a01b03165afa9081156102d257600091610c74575b508515610c5e578581068160025581610c2f575b5050610536565b80610c4d575050610c4285600254611804565b6002555b8680610c28565b610c5691611804565b600255610c46565b634e487b7160e01b600052601260045260246000fd5b610c8d915060403d6040116108cd576108bc818361135d565b905087610c14565b90506020813d602011610cbf575b81610cb06020938361135d565b81010312610193575187610bc2565b3d9150610ca3565b60405163c0b868a560e01b8152600490fd5b9092506020813d602011610d05575b81610cf56020938361135d565b8101031261019357519186610526565b3d9150610ce8565b610d26915060603d606011610b4957610b31818361135d565b509050886104f0565b92505091506080813d608011610d8c575b81610d4d6080938361135d565b8101031261019357610d5e816116e5565b50610d6b602082016116e5565b91610d846060610d7d604085016116e5565b93016116e5565b92918461048b565b3d9150610d40565b604051631bb80bef60e31b8152600490fd5b610dbf915060203d60201161091157610903818361135d565b82610431565b60405163a7f0397560e01b8152600490fd5b604051635c3017c560e11b8152600490fd5b6103d09250610e07915060403d6040116108cd576108bc818361135d565b916103c5565b8135815260209182019101610362565b34610193576000366003190112610193576040517f00000000000000000000000000000000000000000000000000000000000000006001600160a01b03168152602090f35b346101935760a03660031901126101935736602312156101935760405160a0810181811067ffffffffffffffff8211176103055760405260a481368211610193576004905b828210610f1857604051630926f44b60e31b8152600085600483015b60058310610f01578360208160a48173c6e7DF5E7b4f2A278906862b61205850344D4e7d5af480156102d25760009061029f57602090604051908152f35b600190825181526020809101920192019190610ec3565b8135815260209182019101610ea7565b34610193576000366003190112610193576000546040516001600160a01b039091168152602090f35b3461019357600036600319011261019357602060ff60005460a01c166040519015158152f35b34610193576000366003190112610193576020600154604051908152f35b3461019357600036600319011261019357610fae6118df565b600080546001600160a01b0319811682556001600160a01b03167f8be0079c531659141344cd1fd0a4f28419497f9722a3daafe3b4186f6b6457e08280a3005b34610193576000366003190112610193576020604051600a8152f35b346101935760403660031901126101935736602312156101935760405161103081611341565b604481368211610193576020926004905b83821061105257846101d984611637565b81358152908401908401611041565b346101935760403660031901126101935760206101d960405161108381611341565b6040368237600435815260243583820152611637565b34610193576020806003193601126101935760043567ffffffffffffffff81116101935736602382011215610193578060040135906110d78261137f565b916110e5604051938461135d565b8083526024602084019160051b8301019136831161019357602401905b8282106111145760206101d98561158a565b81358152908401908401611102565b34610193576080366003190112610193573660231215610193576040516080810181811067ffffffffffffffff82111761030557604052608481368211610193576004905b8282106111d95760405163248f667760e01b8152600085600483015b600483106111c25783602081608481733Aa5ebB10DC797CAC828524e59A333d0A371443c5af480156102d25760009061029f57602090604051908152f35b600190825181526020809101920192019190611184565b8135815260209182019101611168565b34610193576000366003190112610193576020600254604051908152f35b34610193576000366003190112610193576040517f00000000000000000000000000000000000000000000000000000000000000006001600160a01b03168152602090f35b3461019357600036600319011261019357602060405161128c817f000000000000000000000000000000000000000000000000000000000000000061131e565bf35b34610193576000366003190112610193576040517f00000000000000000000000000000000000000000000000000000000000000006001600160a01b03168152602090f35b34610193576101003660031901126101935760c43560ff811681036101935760e4359060ff82168203610193576020916101d99160a4356084356064356044356024356004356113ba565b90600282101561132b5752565b634e487b7160e01b600052602160045260246000fd5b6040810190811067ffffffffffffffff82111761030557604052565b90601f8019910116810190811067ffffffffffffffff82111761030557604052565b67ffffffffffffffff81116103055760051b60200190565b9190826040910312610193576020825192015190565b9190820180921161087857565b93919294959690966040958651946345505d4960e11b865260208660048160018060a01b037f0000000000000000000000000000000000000000000000000000000000000000165afa95861561157f57600096611547575b5061141e949596611811565b8351634909229f60e01b81529095909284846004817f00000000000000000000000000000000000000000000000000000000000000006001600160a01b03165afa94851561153d57600094600096611518575b5080519760e0890189811067ffffffffffffffff821117610305578252600689526020890160c0368237895115611502575287516001101561150257870152855160021015611502576060860152845160031015611502576080850152835160041015611502576114e69260a08501526113ad565b90805160051015611502576114ff9160c082015261158a565b90565b634e487b7160e01b600052603260045260246000fd5b908096506115339295503d87116108cd576108bc818361135d565b9390939438611471565b513d6000823e3d90fd5b9495506020853d602011611577575b816115636020938361135d565b810103126101935761141e94519594611412565b3d9150611556565b88513d6000823e3d90fd5b604051815160209283019082908482019060005b86828210611620575050506115bc925003601f19810183528261135d565b604051908051908360005b83811061160e5750505090806000928101838152039060025afa156102d2577f30644e72e131a029b85045b68181585d2833e84879b9709143e1f593f00000016000510690565b818184010151818601520184906115c7565b85518452948501948694509092019160010161159e565b6040516314d2f97b60e11b815290600090600483015b600283106116b657505050602081604481739A9f2CCfdE556A7E9Ff0848998Aa4a0CFD8863AE5af49081156102d257600091611687575090565b90506020813d6020116116ae575b816116a26020938361135d565b81010312610193575190565b3d9150611695565b60019082518152602080910192019201919061164d565b90816020910312610193575180151581036101935790565b519060ff8216820361019357565b801561175c57600190602081108216604e82108316176117545781906005925b80821161172b57505081600019048111610878570290565b9092806000190481116108785781841661174b575b800292811c90611713565b80920291611740565b905060050a90565b50600190565b801561175c57600190602081108216604e82108316176117545781906005925b80821161179a57505081600019048111610878570290565b909280600019048111610878578184166117ba575b800292811c90611782565b809202916117af565b908160609103126101935780516001600160a01b03929083811681036101935792602083015181811681036101935760409093015190811681036101935790565b9190820391821161087857565b909361183060ff611829816118369497969716611762565b9416611762565b826113ad565b928084116118d7575b506604000000000000808310156118c557808510156118b357808210156118a15783101561188f5761187b611885926114ff9560321b906113ad565b9060641b906113ad565b9060961b906113ad565b6040516309c5b7c360e21b8152600490fd5b6040516328b2660560e21b8152600490fd5b604051631805864f60e21b8152600490fd5b60405163df0dbdbd60e01b8152600490fd5b92503861183f565b6000546001600160a01b031633036118f357565b60405163118cdaa760e01b8152336004820152602490fd5b91908260409103126101935760405161192381611341565b6020808294805184520151910152565b9080601f83011215610193576040519161194c83611341565b82906040810192831161019357905b8282106119685750505090565b815181526020918201910161195b565b91906080838203126101935760206119ac6040519261199684611341565b604084966119a48382611933565b865201611933565b910152565b6000915b600283106119c257505050565b6001908251815260208091019201920191906119b5565b90604060206119f7936119ed8482516119b1565b01519101906119b1565b56fea2646970667358221220ae73e29325ab85bea4c2850144f0b9388b4df7d04c02908119c11738ac45c90b64736f6c63430008180033a2646970667358221220cf09bba6d19c12dda9914d935e7ae2a6a33b883a36b961181513970310e9a2fd64736f6c63430008180033",
  "deployedBytecode": "0x60806040818152600436101561001457600080fd5b600091823560e01c9081633634487314610056575063683f3dc31461003857600080fd5b3461005257816003193601126100525760209051600a8152f35b5080fd5b9190503461018f5760a036600319011261018f576004356001600160a01b0381811691829003610167576024359381851680950361018b576044359282841680940361018757606435938385168095036101835760843590600282101561017f57611be7978885019367ffffffffffffffff998686108b87111761016b5791608095939187959361019487398452602084015288830152606082015203019086f0801561015d571692833b156101675782519163f2fde38b60e01b83526004830152848260248183885af1801561015d57610136575b6020848451908152f35b811161014957602093508152388061012c565b634e487b7160e01b84526041600452602484fd5b83513d87823e3d90fd5b8480fd5b634e487b7160e01b8c52604160045260248cfd5b8880fd5b8780fd5b8680fd5b8580fd5b8280fdfe610100601f62001be738819003918201601f19168301916001600160401b038311848410176200018c5780849260809460405283398101031262000187576200004881620001a2565b906200005760208201620001a2565b60606200006760408401620001a2565b920151916002831015620001875733156200016e5760008054336001600160a01b0319821681178355604051966001600160a01b039586949093859391908416907f8be0079c531659141344cd1fd0a4f28419497f9722a3daafe3b4186f6b6457e09080a31660a0521660c0521660805260e052611a2f9081620001b88239608051818181610389015281816103f80152818161044c015281816104b101528181610556015281816105a9015281816107e201528181610b8901528181610bdb01528181610e33015281816113e10152611435015260a05181818161078d015261121d015260c05181818161069701526112a4015260e05181818161066b01526112680152f35b604051631e4fbdf760e01b815260006004820152602490fd5b600080fd5b634e487b7160e01b600052604160045260246000fd5b51906001600160a01b0382168203620001875756fe6080604052600436101561001257600080fd5b60003560e01c80630cd3b91d146112d357806313fb89321461128e578063295a52121461124c5780632b7ac3f3146112075780633d6528a1146111e95780633dfb88b21461112357806358bfc379146110995780635bb939951461106157806362a361bb1461100a578063683f3dc314610fee578063715018a614610f955780637a38d18f14610f775780638763d0c414610f515780638da5cb5b14610f285780639cfced9714610e62578063a117527914610e1d578063b1a263d31461031b578063bea140b3146101ff578063d13181b8146101e1578063d1849f48146101985763f2fde38b1461010357600080fd5b34610193576020366003190112610193576004356001600160a01b0381811691829003610193576101326118df565b811561017a57600054826bffffffffffffffffffffffff60a01b821617600055167f8be0079c531659141344cd1fd0a4f28419497f9722a3daafe3b4186f6b6457e0600080a3005b604051631e4fbdf760e01b815260006004820152602490fd5b600080fd5b346101935760a03660031901126101935760643560ff81168103610193576084359060ff82168203610193576020916101d991604435602435600435611811565b604051908152f35b34610193576000366003190112610193576020600354604051908152f35b34610193576060366003190112610193573660231215610193576040516060810181811067ffffffffffffffff82111761030557604052606481368211610193576004905b8282106102f5576040516304b98e1d60e31b8152600085600483015b600383106102de578360208160648173__$fa059fb1da6d850ca47ea49359bfe89f78$__5af480156102d25760009061029f575b602090604051908152f35b506020813d6020116102ca575b816102b96020938361135d565b810103126101935760209051610294565b3d91506102ac565b6040513d6000823e3d90fd5b600190825181526020809101920192019190610260565b8135815260209182019101610244565b634e487b7160e01b600052604160045260246000fd5b346101935761012036600319011261019357366043121561019357604051610100810181811067ffffffffffffffff82111761030557604052803661012411610193576024905b6101248210610e0d57826103746118df565b60408051634909229f60e01b815290816004817f00000000000000000000000000000000000000000000000000000000000000006001600160a01b03165afa9081156102d257600090600092610de9575b506103d09042611804565b1115610dd75760ff60005460a01c16610dc55760405163b5f38c8160e01b81526020816004817f00000000000000000000000000000000000000000000000000000000000000006001600160a01b03165afa9081156102d257600091610da6575b5015610d945760405163ac98e5df60e01b81526080816004817f00000000000000000000000000000000000000000000000000000000000000006001600160a01b03165afa9182156102d257600091600090600094610d2f575b5061049860ff84166116f3565b60405163bc14ee2b60e01b8152909390916060836004817f00000000000000000000000000000000000000000000000000000000000000006001600160a01b03165afa9283156102d257602493602091600091610d0d575b50604051631b9b8aa760e01b815260ff8416600482015294859182906001600160a01b03165afa9283156102d257600093610cd9575b508215610cc75760015415610b74575b60025460035460408051634f367f0f60e01b8152929892949190856004817f00000000000000000000000000000000000000000000000000000000000000006001600160a01b03165afa9081156102d257600095600092610b50575b5060405163bc14ee2b60e01b8152916060836004817f00000000000000000000000000000000000000000000000000000000000000006001600160a01b03165afa9687156102d2576004988c94600099610b0a575b50936105fc93879387936020978d35946113ba565b60405163194b1db960e21b815296909587919082906001600160a01b03165afa9485156102d257600095610ac2575b509060ff61063b818094166116f3565b60405163d88ff4f560e01b8152968216600488015293166024860152166044840152606483015261068f608483017f000000000000000000000000000000000000000000000000000000000000000061131e565b60008260a4817f00000000000000000000000000000000000000000000000000000000000000006001600160a01b03165afa9182156102d257600092610957575b506040516308adcb2560e21b815292909183916000600484015b6008821061093d575050506101406101048301526080610324830191602081518051610144870152015161016485015261072d60208201516101848601906119d9565b61074060408201516102048601906119d9565b61075360608201516102848601906119d9565b0151906101e061030484015281518091526020610344840192019060005b81811061091857505050610124820192909252602091819003817f00000000000000000000000000000000000000000000000000000000000000006001600160a01b03165afa9081156102d2576000916108e9575b50156108d45760408051634f367f0f60e01b81529290836004817f00000000000000000000000000000000000000000000000000000000000000006001600160a01b03165afa9283156102d2576000936108a1575b50818161088e575b50506001549060018201928383116108785783820291808304851490151715610878576004356003556000805460ff60a01b1916929091111560a01b60ff60a01b169190911790556000191461087857600155005b634e487b7160e01b600052601160045260246000fd5b61089791611804565b6002558281610823565b6108c491935060403d6040116108cd575b6108bc818361135d565b810190611397565b9050918361081b565b503d6108b2565b60405160016268f24f60e01b03198152600490fd5b61090b915060203d602011610911575b610903818361135d565b8101906116cd565b836107c6565b503d6108f9565b8251805185526020908101518186015287955060409094019390920191600101610771565b8251815286945060209283019260019290920191016106ea565b9091503d806000833e61096a818361135d565b60208282810103126101935781519167ffffffffffffffff8311610193576101e0838201838301031261019357604051928360a081011067ffffffffffffffff60a0860111176103055760a084016040526109c983830182840161190b565b84526109dc838301604083850101611978565b60208501526109f283830160c083850101611978565b6040850152610a0983830161014083850101611978565b60608501526101c081830101519267ffffffffffffffff841161019357808301601f85848601010112156101935783828401015192610a478461137f565b94610a55604051968761135d565b848652602086019383830160208760061b848487010101011161019357828101820160200194915b60208760061b828487010101018610610aa35750505050505050608082015290856106d0565b604060208094610ab58888018a61190b565b8152019601959250610a7d565b919094506020823d602011610b02575b81610adf6020938361135d565b810103126101935760ff61063b81610af781956116e5565b97939450505061062b565b3d9150610ad2565b6020959199509387938793610b396105fc9760603d606011610b49575b610b31818361135d565b8101906117c3565b50509b93975093509350936105e7565b503d610b27565b909550610b6c915060403d6040116108cd576108bc818361135d565b90948a610592565b60405163c17268d960e01b81526020816004817f00000000000000000000000000000000000000000000000000000000000000006001600160a01b03165afa9081156102d257600091610c95575b5060035560408051634f367f0f60e01b815290816004817f00000000000000000000000000000000000000000000000000000000000000006001600160a01b03165afa9081156102d257600091610c74575b508515610c5e578581068160025581610c2f575b5050610536565b80610c4d575050610c4285600254611804565b6002555b8680610c28565b610c5691611804565b600255610c46565b634e487b7160e01b600052601260045260246000fd5b610c8d915060403d6040116108cd576108bc818361135d565b905087610c14565b90506020813d602011610cbf575b81610cb06020938361135d565b81010312610193575187610bc2565b3d9150610ca3565b60405163c0b868a560e01b8152600490fd5b9092506020813d602011610d05575b81610cf56020938361135d565b8101031261019357519186610526565b3d9150610ce8565b610d26915060603d606011610b4957610b31818361135d565b509050886104f0565b92505091506080813d608011610d8c575b81610d4d6080938361135d565b8101031261019357610d5e816116e5565b50610d6b602082016116e5565b91610d846060610d7d604085016116e5565b93016116e5565b92918461048b565b3d9150610d40565b604051631bb80bef60e31b8152600490fd5b610dbf915060203d60201161091157610903818361135d565b82610431565b60405163a7f0397560e01b8152600490fd5b604051635c3017c560e11b8152600490fd5b6103d09250610e07915060403d6040116108cd576108bc818361135d565b916103c5565b8135815260209182019101610362565b34610193576000366003190112610193576040517f00000000000000000000000000000000000000000000000000000000000000006001600160a01b03168152602090f35b346101935760a03660031901126101935736602312156101935760405160a0810181811067ffffffffffffffff8211176103055760405260a481368211610193576004905b828210610f1857604051630926f44b60e31b8152600085600483015b60058310610f01578360208160a48173__$46fbdf6658faf65265971bdad66851b86c$__5af480156102d25760009061029f57602090604051908152f35b600190825181526020809101920192019190610ec3565b8135815260209182019101610ea7565b34610193576000366003190112610193576000546040516001600160a01b039091168152602090f35b3461019357600036600319011261019357602060ff60005460a01c166040519015158152f35b34610193576000366003190112610193576020600154604051908152f35b3461019357600036600319011261019357610fae6118df565b600080546001600160a01b0319811682556001600160a01b03167f8be0079c531659141344cd1fd0a4f28419497f9722a3daafe3b4186f6b6457e08280a3005b34610193576000366003190112610193576020604051600a8152f35b346101935760403660031901126101935736602312156101935760405161103081611341565b604481368211610193576020926004905b83821061105257846101d984611637565b81358152908401908401611041565b346101935760403660031901126101935760206101d960405161108381611341565b6040368237600435815260243583820152611637565b34610193576020806003193601126101935760043567ffffffffffffffff81116101935736602382011215610193578060040135906110d78261137f565b916110e5604051938461135d565b8083526024602084019160051b8301019136831161019357602401905b8282106111145760206101d98561158a565b81358152908401908401611102565b34610193576080366003190112610193573660231215610193576040516080810181811067ffffffffffffffff82111761030557604052608481368211610193576004905b8282106111d95760405163248f667760e01b8152600085600483015b600483106111c2578360208160848173__$e61c65d9562aef5fa6ab22c0f787cf1e30$__5af480156102d25760009061029f57602090604051908152f35b600190825181526020809101920192019190611184565b8135815260209182019101611168565b34610193576000366003190112610193576020600254604051908152f35b34610193576000366003190112610193576040517f00000000000000000000000000000000000000000000000000000000000000006001600160a01b03168152602090f35b3461019357600036600319011261019357602060405161128c817f000000000000000000000000000000000000000000000000000000000000000061131e565bf35b34610193576000366003190112610193576040517f00000000000000000000000000000000000000000000000000000000000000006001600160a01b03168152602090f35b34610193576101003660031901126101935760c43560ff811681036101935760e4359060ff82168203610193576020916101d99160a4356084356064356044356024356004356113ba565b90600282101561132b5752565b634e487b7160e01b600052602160045260246000fd5b6040810190811067ffffffffffffffff82111761030557604052565b90601f8019910116810190811067ffffffffffffffff82111761030557604052565b67ffffffffffffffff81116103055760051b60200190565b9190826040910312610193576020825192015190565b9190820180921161087857565b93919294959690966040958651946345505d4960e11b865260208660048160018060a01b037f0000000000000000000000000000000000000000000000000000000000000000165afa95861561157f57600096611547575b5061141e949596611811565b8351634909229f60e01b81529095909284846004817f00000000000000000000000000000000000000000000000000000000000000006001600160a01b03165afa94851561153d57600094600096611518575b5080519760e0890189811067ffffffffffffffff821117610305578252600689526020890160c0368237895115611502575287516001101561150257870152855160021015611502576060860152845160031015611502576080850152835160041015611502576114e69260a08501526113ad565b90805160051015611502576114ff9160c082015261158a565b90565b634e487b7160e01b600052603260045260246000fd5b908096506115339295503d87116108cd576108bc818361135d565b9390939438611471565b513d6000823e3d90fd5b9495506020853d602011611577575b816115636020938361135d565b810103126101935761141e94519594611412565b3d9150611556565b88513d6000823e3d90fd5b604051815160209283019082908482019060005b86828210611620575050506115bc925003601f19810183528261135d565b604051908051908360005b83811061160e5750505090806000928101838152039060025afa156102d2577f30644e72e131a029b85045b68181585d2833e84879b9709143e1f593f00000016000510690565b818184010151818601520184906115c7565b85518452948501948694509092019160010161159e565b6040516314d2f97b60e11b815290600090600483015b600283106116b65750505060208160448173__$1540826e134b1b69b7091c82576ee3aadd$__5af49081156102d257600091611687575090565b90506020813d6020116116ae575b816116a26020938361135d565b81010312610193575190565b3d9150611695565b60019082518152602080910192019201919061164d565b90816020910312610193575180151581036101935790565b519060ff8216820361019357565b801561175c57600190602081108216604e82108316176117545781906005925b80821161172b57505081600019048111610878570290565b9092806000190481116108785781841661174b575b800292811c90611713565b80920291611740565b905060050a90565b50600190565b801561175c57600190602081108216604e82108316176117545781906005925b80821161179a57505081600019048111610878570290565b909280600019048111610878578184166117ba575b800292811c90611782565b809202916117af565b908160609103126101935780516001600160a01b03929083811681036101935792602083015181811681036101935760409093015190811681036101935790565b9190820391821161087857565b909361183060ff611829816118369497969716611762565b9416611762565b826113ad565b928084116118d7575b506604000000000000808310156118c557808510156118b357808210156118a15783101561188f5761187b611885926114ff9560321b906113ad565b9060641b906113ad565b9060961b906113ad565b6040516309c5b7c360e21b8152600490fd5b6040516328b2660560e21b8152600490fd5b604051631805864f60e21b8152600490fd5b60405163df0dbdbd60e01b8152600490fd5b92503861183f565b6000546001600160a01b031633036118f357565b60405163118cdaa760e01b8152336004820152602490fd5b91908260409103126101935760405161192381611341565b6020808294805184520151910152565b9080601f83011215610193576040519161194c83611341565b82906040810192831161019357905b8282106119685750505090565b815181526020918201910161195b565b91906080838203126101935760206119ac6040519261199684611341565b604084966119a48382611933565b865201611933565b910152565b6000915b600283106119c257505050565b6001908251815260208091019201920191906119b5565b90604060206119f7936119ed8482516119b1565b01519101906119b1565b56fea2646970667358221220ae73e29325ab85bea4c2850144f0b9388b4df7d04c02908119c11738ac45c90b64736f6c63430008180033a2646970667358221220cf09bba6d19c12dda9914d935e7ae2a6a33b883a36b961181513970310e9a2fd64736f6c63430008180033",
  "libraries": {
    "PoseidonT3": "0x9A9f2CCfdE556A7E9Ff0848998Aa4a0CFD8863AE",
    "PoseidonT4": "0x68B1D87F95878fE05B998F19b66F4baba5De1aed",
    "PoseidonT5": "0x3Aa5ebB10DC797CAC828524e59A333d0A371443c",
    "PoseidonT6": "0xc6e7DF5E7b4f2A278906862b61205850344D4e7d"
  },
  "devdoc": {
    "kind": "dev",
    "methods": {
      "deploy(address,address,address,address,uint8)": {
        "params": {
          "_mode": "Voting mode",
          "_owner": "Owner of the MessageProcessor contract",
          "_poll": "Poll contract",
          "_verifier": "Verifier contract",
          "_vkRegistry": "VkRegistry contract"
        },
        "returns": {
          "messageProcessorAddr": "The deployed MessageProcessor contract"
        }
      }
    },
    "title": "MessageProcessorFactory",
    "version": 1
  },
  "userdoc": {
    "kind": "user",
    "methods": {
      "MESSAGE_DATA_LENGTH()": {
        "notice": "the length of a MACI message"
      },
      "deploy(address,address,address,address,uint8)": {
        "notice": "Deploy a new MessageProcessor contract and return the address."
      }
    },
    "notice": "A factory contract which deploys MessageProcessor contracts.",
    "version": 1
  },
  "storageLayout": {
    "storage": [],
    "types": null
  }
}