{
  "address": "0x59b670e9fA9D0A427751Af201D676719a970857b",
  "abi": [
    {
      "inputs": [],
      "stateMutability": "payable",
      "type": "constructor"
    },
    {
      "inputs": [],
      "name": "InvalidMaxValues",
      "type": "error"
    },
    {
      "inputs": [],
      "name": "MESSAGE_DATA_LENGTH",
      "outputs": [
        {
          "internalType": "uint8",
          "name": "",
          "type": "uint8"
        }
      ],
      "stateMutability": "view",
      "type": "function"
    },
    {
      "inputs": [
        {
          "internalType": "uint256",
          "name": "_duration",
          "type": "uint256"
        },
        {
          "components": [
            {
              "internalType": "uint256",
              "name": "maxMessages",
              "type": "uint256"
            },
            {
              "internalType": "uint256",
              "name": "maxVoteOptions",
              "type": "uint256"
            }
          ],
          "internalType": "struct Params.MaxValues",
          "name": "_maxValues",
          "type": "tuple"
        },
        {
          "components": [
            {
              "internalType": "uint8",
              "name": "intStateTreeDepth",
              "type": "uint8"
            },
            {
              "internalType": "uint8",
              "name": "messageTreeSubDepth",
              "type": "uint8"
            },
            {
              "internalType": "uint8",
              "name": "messageTreeDepth",
              "type": "uint8"
            },
            {
              "internalType": "uint8",
              "name": "voteOptionTreeDepth",
              "type": "uint8"
            }
          ],
          "internalType": "struct Params.TreeDepths",
          "name": "_treeDepths",
          "type": "tuple"
        },
        {
          "components": [
            {
              "internalType": "uint256",
              "name": "x",
              "type": "uint256"
            },
            {
              "internalType": "uint256",
              "name": "y",
              "type": "uint256"
            }
          ],
          "internalType": "struct DomainObjs.PubKey",
          "name": "_coordinatorPubKey",
          "type": "tuple"
        },
        {
          "internalType": "address",
          "name": "_maci",
          "type": "address"
        },
        {
          "internalType": "contract TopupCredit",
          "name": "_topupCredit",
          "type": "address"
        },
        {
          "internalType": "address",
          "name": "_pollOwner",
          "type": "address"
        }
      ],
      "name": "deploy",
      "outputs": [
        {
          "internalType": "address",
          "name": "pollAddr",
          "type": "address"
        }
      ],
      "stateMutability": "nonpayable",
      "type": "function"
    }
  ],
  "transactionHash": "0xa31941dd79f24238fee8a43aa2a31b44e1c41f37e63da475a02d85a4dcdb820c",
  "args": [],
  "numDeployments": 1,
  "solcInputHash": "d4edc97ed9e4f18935e5ac94c4119edc",
  "bytecode": "0x608080604052614b9190816100128239f3fe60806040818152600490813610156200001757600080fd5b600092833560e01c908163683f3dc31462000341575063b43c4969146200003d57600080fd5b346200028a57610180806003193601126200033d57816023193601126200033d5760803660631901126200033d578160e3193601126200033d57610124356001600160a01b0381811692918390036200029857610144359281841680940362000339576101643592828416809403620003355760443591660400000000000083101562000325576084359060ff821680920362000321578751906122649182810167ffffffffffffffff938282108583111762000304576020918391620028f883398681520301908cf080156200031757861697895191606083018381108582111762000304578b52825260208201938985528a83019182528a519661256a8089019589871090871117620002f0576200038e89398c35855260243560208601528b85015260643560ff8116809103620002ec576060850152608084015260a43560ff8116809103620002e85760a084015260c4359160ff8316809303620002e857869488809492819360c088015260e43560e08801526101043561010088015251166101208601525116610140840152511661016082015203019087f08015620002de571693823b156200029857835186816024818363f2fde38b60e01b988983528b888401525af18015620002d457620002be575b50843b15620002985783516370e39c9560e11b8152869081818481838b5af18015620002b4576200029c575b5050843b1562000298578351928352820152838160248183875af180156200028e5762000272575b6020838351908152f35b6200027e849162000362565b6200028a578262000268565b8280fd5b82513d86823e3d90fd5b8580fd5b620002a79062000362565b6200029857853862000240565b86513d84823e3d90fd5b620002cc9096919662000362565b943862000214565b85513d89823e3d90fd5b84513d88823e3d90fd5b8c80fd5b8d80fd5b50634e487b7160e01b8e5260418d5260248efd5b634e487b7160e01b8e5260418d5260248efd5b89513d8d823e3d90fd5b8980fd5b86516302c3596560e51b81528890fd5b8780fd5b8680fd5b8380fd5b8490346200035e57816003193601126200035e5780600a60209252f35b5080fd5b67ffffffffffffffff81116200037757604052565b634e487b7160e01b600052604160045260246000fdfe60e0806040526200256a80380380916200001a828562000527565b833981018181039161018083126200048c578051926200003e83602084016200054b565b6080605f198301126200048c57604051946001600160401b03926080870184811188821017620004bd57604052620000796060860162000585565b8752620000896080860162000585565b60208801526200009c60a0860162000585565b94604088019586526060620000c9620000b860c0840162000585565b98828b01998a5260e084016200054b565b9261011f1901126200048c576040516060810181811087821117620004bd576040526101208201516001600160a01b03811681036200048c578152610140820151916001600160a01b03831683036200048c57602082019283526101600151926001600160a01b03841684036200048c576040820193845233156200050e5760008054336001600160a01b0319821681178355604051939290916001600160a01b0316907f8be0079c531659141344cd1fd0a4f28419497f9722a3daafe3b4186f6b6457e09080a37f0ad794e7fb50257e0edc93fe4616c69ea691e7a6c653333b6a5b507d798947276001557ec31c90221285dc87ee66daadc19f64f922e45a613f4f5429d74ddc7d66e0236002557f2afdf0e1d10d07d0df3a8481202bf2595108195e34d4ccb88742641c576aa77d6003557f177bbb5acaafc1f1deb73b8ae33f97132089ab84039048a096e202b1f8c429106004557f25c1a155f21ae70ca3b8bdb27961efdee58bdafff83274c18dd37d0f0a8bfbb5600555805191602082019283517f30644e72e131a029b85045b68181585d2833e84879b9709143e1f593f0000001808080858196099380098180828187620292fc090894620292f809096001088181811115620004f8575b508103908111620004e25760009008620004d35750519081600755519081600855604051978860408101109060408a011117620004bd57604088016040526040368937875260208701526040516314d2f97b60e11b8152956000600488015b60028210620004a657505050602086604481739A9f2CCfdE556A7E9Ff0848998Aa4a0CFD8863AE5af480156200049a576000906200045c575b6020965060805260018060a01b0390511660018060a01b0319601154161760115560018060a01b0390511660018060a01b0319601254161760125560018060a01b0390511660018060a01b0319601354161760135560c0528051600e550151600f5560ff83511663ff00000062ff000061ff00602060105497015160081b16935160101b16935160181b169363ffffffff1916171717176010554260a052604051611fd59081620005958239608051816109eb015260a051818181610540015281816108db01528181610a2d01528181610d1b015281816112fb015281816113d3015281816115a90152611982015260c0518181816105670152818161090201528181610a5401528181610cf70152818161131e015281816113fa015281816115d001526119a90152f35b506020863d60201162000491575b81620004796020938362000527565b810103126200048c576020955162000331565b600080fd5b3d91506200046a565b6040513d6000823e3d90fd5b6020806001928551815201930191019091620002f8565b634e487b7160e01b600052604160045260246000fd5b6379fae7af60e01b8152600490fd5b634e487b7160e01b600052601160045260246000fd5b909150828101809111620004e257903862000299565b604051631e4fbdf760e01b815260006004820152602490fd5b601f909101601f19168101906001600160401b03821190821017620004bd57604052565b91908260409103126200048c57604080519081016001600160401b03811182821017620004bd576040526020808294805184520151910152565b519060ff821682036200048c5756fe6080604052600436101561001257600080fd5b6000803560e01c8062329f2f146119645780630396a0ce1461193f57806306912d3c1461182d5780630f4cf6921461180f578063167fd483146117df578063184ff47f1461159557806331e766a514611570578063394b78a2146113a35780633dfb88b2146113445780634909229f146112e45780634f367f0f146112bf57806358bfc379146111755780635bb93995146111445780635d5909dd1461112657806362a361bb14611101578063683f3dc3146110e5578063715018a61461108b5780637296aaea14610bae5780637d0a81c814610aff57806386f3c3f714610a0e5780638aa0ba92146109d35780638da5cb5b146109ac5780639c971729146108b95780639cfced9714610861578063ac98e5df1461081f578063ae93a21214610520578063b5f38c81146104fd578063bc14ee2b146104c0578063bea140b314610460578063c17268d914610442578063e1c7392a1461023d578063f2fde38b146101a75763fba630f21461018757600080fd5b346101a457806003193601126101a4576020600954604051908152f35b80fd5b50346101a45760203660031901126101a4576004356001600160a01b0381811691829003610239576101d7611f53565b811561022057600054826bffffffffffffffffffffffff60a01b821617600055167f8be0079c531659141344cd1fd0a4f28419497f9722a3daafe3b4186f6b6457e0600080a380f35b604051631e4fbdf760e01b815260048101849052602490fd5b8280fd5b50346101a457806003193601126101a45760065460ff81166104305760019060ff1916176006556001600c5401600c5560405161027981611a96565b60403682377f12817f4161f2f5ded33f26c55735a77e80e4f8975483c8c2704745128417f7118152602090818101838152604051916102b783611a96565b600083526040516102c781611ab2565b84610140948536843701526000846040516102e181611a96565b8281520152604051926102f384611ab2565b368437518252518282015260405161030a81611a96565b7f171e826ad4a870fd925e0bf0e87884e70e080879c2205ef10114f28a3b6f6dd78152828101927f2bd407d897fbbca9f88adfd2d15252e69de8c1564eb4d3d27162e259172f1a1d84526040519261036184611a96565b600184528184015284816103758486611c85565b601254604051631ffc735d60e01b815260048101929092529092839160249183916001600160a01b03165af18015610425576103f3575b857fe2067f06dd7b8159b21a5490f8663f6bb031d9b35ed6d298b5489674cb9cda4b6101a08688876103e16040518094611b87565b5161016083015251610180820152a180f35b819392933d831161041e575b6104098183611b23565b81010312610419579038806103ac565b600080fd5b503d6103ff565b6040513d88823e3d90fd5b6040516342a2e18d60e01b8152600490fd5b50346101a457806003193601126101a4576020600b54604051908152f35b50346101a45760603660031901126101a45736602312156101a45760405161048781611b07565b606481368211610419576020926004905b8382106104b157846104a984611eec565b604051908152f35b81358152908401908401610498565b50346101a457806003193601126101a457606060018060a01b03806011541690806012541690601354169060405192835260208301526040820152f35b50346101a457806003193601126101a457602060ff600a54166040519015158152f35b50346101a45760208060031936011261081b5761053b611f53565b6105657f000000000000000000000000000000000000000000000000000000000000000042611c62565b7f0000000000000000000000000000000000000000000000000000000000000000101561080957600a5460ff81166107f75760ff1916600117600a55601154604051630c0775ff60e31b81526001600160a01b03918216908381600481855afa9081156107af578391859187916107ba575b5060046040518094819363b6a64acd60e01b8352165afa9081156107af578591610782575b50156107715782849160246040518094819363dd0982a360e01b835260043560048401525af1908115610766578491610739575b50806009556040519061064282611b07565b6060368337815260ff60105460181c16600019810160ff81116107255760051115610711579161068084926004945484820152866040820152611eec565b600b55601154166040519283809263122db15360e01b82525afa9182156107065783926106d8575b505080600d556009547fa80928657383ff9d374f1409cf51e7460a64472b6baeb5ded1199830c15bae018380a380f35b90809250813d83116106ff575b6106ef8183611b23565b81010312610419575138806106a8565b503d6106e5565b6040513d85823e3d90fd5b634e487b7160e01b85526032600452602485fd5b634e487b7160e01b86526011600452602486fd5b90508281813d831161075f575b6107508183611b23565b81010312610419575138610630565b503d610746565b6040513d86823e3d90fd5b604051624a03c360e31b8152600490fd5b6107a29150843d86116107a8575b61079a8183611b23565b810190611d63565b386105fc565b503d610790565b6040513d87823e3d90fd5b92505081813d83116107f0575b6107d18183611b23565b810103126107ec575182811681036107ec57838391386105d7565b8480fd5b503d6107c7565b60405163084ef7b960e41b8152600490fd5b604051630931513d60e11b8152600490fd5b5080fd5b50346101a457806003193601126101a457608060105460ff604051918181168352818160081c166020840152818160101c16604084015260181c166060820152f35b50346101a45760a03660031901126101a45736602312156101a45760405161088881611aeb565b60a481368211610419576020926004905b8382106108aa57846104a984611e85565b81358152908401908401610899565b50346101a45760203660031901126101a4576004356108d6611f53565b6109007f000000000000000000000000000000000000000000000000000000000000000042611c62565b7f000000000000000000000000000000000000000000000000000000000000000010156108095760125482906001600160a01b0316803b1561081b5781809160246040518094819363c15da65b60e01b83528860048401525af180156109a15761098d575b50807f1245b881cb30fdad22b2f9fde2d5c2a3605bbdf272d5e8a2235d8c9e81aba2ce91a280f35b61099690611a6c565b61081b578138610965565b6040513d84823e3d90fd5b50346101a457806003193601126101a457546040516001600160a01b039091168152602090f35b50346101a457806003193601126101a45760206040517f00000000000000000000000000000000000000000000000000000000000000008152f35b50346101a457610a1d36611c4c565b610a28929192611f53565b610a527f000000000000000000000000000000000000000000000000000000000000000042611c62565b7f000000000000000000000000000000000000000000000000000000000000000010156108095760ff600a54166107f7576011546001600160a01b031690813b1561023957829160448392604051948593849263cfa1fa0360e01b845289600485015260248401525af180156109a157610af0575b50907fbe5eae95ff0a9a2779506ae62da06dda1e349311d3f2b6ceb990ea42b6a5f20b8280a280f35b610af990611a6c565b38610ac7565b50346101a45736600319016080811261081b5760405191606083019183831067ffffffffffffffff841117610b9a57604090838252126101a45760206104a98484610b4981611a96565b6004358152602435608083015281528281016044358152604082019060643582528460405193610b7885611acf565b6080368637805151855251015185840152516040830152516060820152611d7b565b634e487b7160e01b82526041600452602482fd5b50346101a45760403660031901126101a45767ffffffffffffffff806004351161081b5736602360043501121561081b5780600435600401351161081b57366024610160600435600401350260043501011161081b57806024351161081b5736602360243501121561081b5760243560040135116101a45736602480356004013560061b81350101116101a45760243560040135600435600401350361107957805b600435600401358110610c61575080f35b6024356004013581101561106557610160600435828202013603602319011261081b5760405190610c9182611a96565b60043561016082020160248101358352366063909101121561023957604051610cb981611ab2565b803661018461016085026004350101116107ec57604461016084026004350101905b61018461016085026004350101821061105557505060208301527f0000000000000000000000000000000000000000000000000000000000000000610d407f000000000000000000000000000000000000000000000000000000000000000042611c62565b101561104357600c54600e5481101561103157600080516020611f8083398151915280602435600685901b01604401358009818060248035600688901b0101358009620292fc090884600080516020611f808339815191528080602435600688901b0160440135800981806024803560068b901b0101358009620292f80909600108600080516020611f8083398151915280602435600688901b0160440135800981806024803560068b901b0101358009620292fc09081115610f65575b600080516020611f8083398151915291610e439083808060243560068a901b0160440135800981806024803560068d901b0101358009620292f8090960010890611c62565b08610f5357600101600c556001825260406023198260061b602435013603011261023957826020610e97604051610e7981611a96565b60248035600687901b01908101358252604401358382015285611c85565b601254604051631ffc735d60e01b815260048101929092529092839160249183916001600160a01b03165af1801561076657610f28575b507fe2067f06dd7b8159b21a5490f8663f6bb031d9b35ed6d298b5489674cb9cda4b6101a0600193610f036040518092611b87565b60248035600686901b019081013561016083015260440135610180820152a101610c50565b602090813d8311610f4c575b610f3e8183611b23565b810103126102395738610ece565b503d610f34565b6040516379fae7af60e01b8152600490fd5b50600080516020611f8083398151915290508080602435600686901b01604401358009818060248035600689901b0101358009620292fc090801600080516020611f8083398151915280602435600686901b01604401358009818060248035600689901b0101358009620292fc09081161101d57600080516020611f8083398151915284610e43828080602435600689901b0160440135800981806024803560068c901b0101358009620292fc090801925050610dfe565b634e487b7160e01b84526011600452602484fd5b604051631ec0b2f760e01b8152600490fd5b60405163148fb9a960e31b8152600490fd5b8135815260209182019101610cdb565b634e487b7160e01b82526032600452602482fd5b60405163ca3487f760e01b8152600490fd5b50346101a457806003193601126101a4576110a4611f53565b80546001600160a01b03198116825581906001600160a01b03167f8be0079c531659141344cd1fd0a4f28419497f9722a3daafe3b4186f6b6457e08280a380f35b50346101a457806003193601126101a4576020604051600a8152f35b50346101a45760403660031901126101a45760206104a961112136611b45565b611e1e565b50346101a457806003193601126101a4576020600d54604051908152f35b50346101a45760206104a961115836611c4c565b6040519161116583611a96565b6040368437825283820152611e1e565b50346101a457602090816003193601126101a45767ffffffffffffffff60043581811161023957366023820112156102395780600401359182116112ab578160051b90604051926111c886840185611b23565b835284830160248193830101913683116112a75791859391602488969401905b8282106112955750506040519251858401929150845b81811061127c575050508161121b9103601f198101835282611b23565b6040519080519084845b8381106112675750505081908101838152039060025afa1561125b57600080516020611f80833981519152905106604051908152f35b604051903d90823e3d90fd5b82810182015185820152879550869101611225565b82518452889688965093840193909201916001016111fe565b813581528795509086019086016111e8565b8580fd5b634e487b7160e01b83526041600452602483fd5b50346101a457806003193601126101a4576040600d54600c5482519182526020820152f35b50346101a457806003193601126101a457604080517f000000000000000000000000000000000000000000000000000000000000000081527f00000000000000000000000000000000000000000000000000000000000000006020820152f35b50346101a45760803660031901126101a45736602312156101a45760405161136b81611acf565b806084913660841161139f57602093506004905b83821061139057846104a984611d7b565b8135815290840190840161137f565b8380fd5b50346101a4576101a08060031936011261081b576113c036611bbb565b90604036610163190112610239576113f87f000000000000000000000000000000000000000000000000000000000000000042611c62565b7f0000000000000000000000000000000000000000000000000000000000000000111561104357600c5491600e548310156110315761016435926101843590600080516020611f8083398151915286818780098280808780098180828187620292fc090894620292f80909600108908082811115611542575b509061147c91611c62565b08610f5357600101600c55600182528460206114a061149a36611c21565b85611c85565b601254604051631ffc735d60e01b815260048101929092529092839160249183916001600160a01b03165af1801561042557611517575b507fe2067f06dd7b8159b21a5490f8663f6bb031d9b35ed6d298b5489674cb9cda4b936115076040518094611b87565b610160830152610180820152a180f35b602090813d831161153b575b61152d8183611b23565b810103126107ec57386114d7565b503d611523565b809293508491500180911161155c5788919061147c611471565b634e487b7160e01b89526011600452602489fd5b50346101a457806003193601126101a457604060075460085482519182526020820152f35b50346101a4576115a436611c4c565b6115ce7f000000000000000000000000000000000000000000000000000000000000000042611c62565b7f0000000000000000000000000000000000000000000000000000000000000000111561104357600c54600e5481101561103157600101600c556013546040516323b872dd60e01b81523360048201523060248201526044810183905260209285926001600160a01b039190859084906064908290889087165af19283156107665785936117c2575b506040519561166587611a96565b604036883786528286019081526040519561167f87611a96565b84875260405161168e81611ab2565b846101409889368437015284846040516116a781611a96565b8281520152604051966116b988611ab2565b368837518652518286015260246117386040516116d581611a96565b7f171e826ad4a870fd925e0bf0e87884e70e080879c2205ef10114f28a3b6f6dd781527f2bd407d897fbbca9f88adfd2d15252e69de8c1564eb4d3d27162e259172f1a1d858201526040519761172a89611a96565b600289528589015287611c85565b9160125416916040519485938492631ffc735d60e01b845260048401525af1801561076657611799575b837f935afc7bb7cc33eb3e24e20dcfc75f5b21fa58e9c82cca06435238efaf9a3a58610160856117956040518092611b87565ba180f35b813d83116117bb575b6117ac8183611b23565b8101031261081b573880611762565b503d6117a2565b6117d890843d86116107a85761079a8183611b23565b5038611657565b50346101a4576101a03660031901126101a45760206104a961180036611bbb565b61180936611c21565b90611c85565b50346101a457806003193601126101a4576020600c54604051908152f35b50346101a45760603660031901126101a4576101c09061184c36611b45565b906040519061185a82611a96565b808252602092839160405161186e81611ab2565b83610140958636843701528260405161188681611a96565b82815201526040519261189884611ab2565b36843780518352015182820152604051906118b282611a96565b7f171e826ad4a870fd925e0bf0e87884e70e080879c2205ef10114f28a3b6f6dd78252828201907f2bd407d897fbbca9f88adfd2d15252e69de8c1564eb4d3d27162e259172f1a1d82526040519361190985611a96565b604435855284015261191b8284611c85565b916119296040518095611b87565b51610160840152516101808301526101a0820152f35b50346101a457806003193601126101a4576040600e54600f5482519182526020820152f35b50346101a457806003193601126101a45761197d611f53565b6119a77f000000000000000000000000000000000000000000000000000000000000000042611c62565b7f0000000000000000000000000000000000000000000000000000000000000000101561080957601254601080546040516324a47aeb60e01b8152911c60ff166004820152906020908290602490829086906001600160a01b03165af19081156109a1578291611a3a575b507fc5624680ab5d50c84507f9e0dc2032163de2bda906ab8a661a53dd4d43bd5dc78280a280f35b90506020813d602011611a64575b81611a5560209383611b23565b8101031261081b575138611a12565b3d9150611a48565b67ffffffffffffffff8111611a8057604052565b634e487b7160e01b600052604160045260246000fd5b6040810190811067ffffffffffffffff821117611a8057604052565b610140810190811067ffffffffffffffff821117611a8057604052565b6080810190811067ffffffffffffffff821117611a8057604052565b60a0810190811067ffffffffffffffff821117611a8057604052565b6060810190811067ffffffffffffffff821117611a8057604052565b90601f8019910116810190811067ffffffffffffffff821117611a8057604052565b80602312156104195760405190611b5b82611a96565b81604491604411610419576004905b828210611b775750505090565b8135815260209182019101611b6a565b805182526020808092015192016000905b600a8210611ba65750505050565b82806001928651815201940191019092611b98565b906101606003198301126104195760405191611bd683611a96565b82600435815281604312156104195760405191611bf283611ab2565b82610164918211610419576024905b828210611c115750505060200152565b8135815260209182019101611c01565b6040906101631901126104195760405190611c3b82611a96565b610164358252610184356020830152565b6040906003190112610419576004359060243590565b91908203918211611c6f57565b634e487b7160e01b600052601160045260246000fd5b906020808301916040805194611c9a86611aeb565b60a0368737845151865283855101518487015281855101518287015260608551015160608701526080855101516080870152610120825195611cdb87611aeb565b60a036883760a081510151875260c0815101518688015260e08151015184880152610100815101516060880152510151608086015281519460a0860186811067ffffffffffffffff821117611a8057611d6097611d4993611d40928652518852611e85565b85870152611e85565b908401528051606084015201516080820152611e85565b90565b90816020910312610419575180151581036104195790565b60405163248f667760e01b81529060049060008284015b838210611e075750505050602081608481733Aa5ebB10DC797CAC828524e59A333d0A371443c5af4908115611dfb57600091611dcc575090565b90506020813d602011611df3575b81611de760209383611b23565b81010312610419575190565b3d9150611dda565b6040513d6000823e3d90fd5b600190835181526020809101930191019091611d92565b6040516314d2f97b60e11b815290600090600483015b60028310611e6e57505050602081604481739A9f2CCfdE556A7E9Ff0848998Aa4a0CFD8863AE5af4908115611dfb57600091611dcc575090565b600190825181526020809101920192019190611e34565b604051630926f44b60e31b815290600090600483015b60058310611ed55750505060208160a48173c6e7DF5E7b4f2A278906862b61205850344D4e7d5af4908115611dfb57600091611dcc575090565b600190825181526020809101920192019190611e9b565b6040516304b98e1d60e31b815290600090600483015b60038310611f3c575050506020816064817368B1D87F95878fE05B998F19b66F4baba5De1aed5af4908115611dfb57600091611dcc575090565b600190825181526020809101920192019190611f02565b6000546001600160a01b03163303611f6757565b60405163118cdaa760e01b8152336004820152602490fdfe30644e72e131a029b85045b68181585d2833e84879b9709143e1f593f0000001a2646970667358221220885293766f7d1db200f1d820722de7fbb2d312142c8c0536813c0bf4c2a107e864736f6c6343000818003360e0346200067c57601f6200226438819003918201601f19168301916001600160401b0383118484101762000681578084926020946040528339810103126200067c575133156200066357600054906040513360018060a01b0384167f8be0079c531659141344cd1fd0a4f28419497f9722a3daafe3b4186f6b6457e0600080a381156200065457506020811162000635576001600160a81b03199091163360ff60a01b1916176000556080819052600560a052620000be9062000697565b60c0527f12817f4161f2f5ded33f26c55735a77e80e4f8975483c8c2704745128417f711610172557f1c8de1edeabc24fc4c1595acaabb70be9b70f351d58c6fa338e1e9a994413bfb610173557f22fcda488c14b34fc60eb073fbe92fe10793e2ab14682e0f057332ddbef3d55c610174557f2db474db7c7212646cb15c6177d87be30711e6c04f1139d8e495ef1d1d998227610175557efde404053ec39a19f6ac347121a2264815dda84f910a388cb372e967a5d08c610176557f0723792ffab6ec6cfb3ece1509b9b4fb07e5bdb2299d1538e6e1db916f90cf89610177557f2a4392ec4e3d1811cd6a950cc865ee6f2342910a6551c5dce38cb995576c7c70610178557f1dead4c14f75e9d8449c80b648dcd4694c2ee50da2ba16e5e438f0d77ab02e34610179557f124c53ce0953fffb7ab5e3c143df6cd48ba747d3959fcb8086405d763ed5455061017a557f02bae19605746a8cd3f0927b2c01630f36f4d1bab9216ca839833e7ff6efa20661017b557f1f8375099becf17173d457d0d07bfb74c7067df1143b5ad987046e8e66817bc961017c557f0e13e954d61bb3fa3b03e7d136ca909b610fa2ca4443d920d94d16684f2b83d461017d557f1416ef2fc4f88fcfc4f9eb12f8e214b1c3e31c6c10ece9cfa51f078a3bbf345761017e557f032f915ff71e198a7955d2697249f40fb94c65812ed24e670c9700f52fdf6e0e61017f557f08bfebf4b3ddb0f8c51dd40193f5996da9f3d799ee0d8beb6be4038132df60b4610180557f065ac498cf4a5acaeb3b6cee826da9f834c961fa39feff6ae925b90dff79b613610181557f2e72c628101a93201b912a3e3fe96d39b0a9076ec39b7935a015c59bb32b8a2a610182557f19bba68e7b9da1e6ec42e52d7ab2adaf3b6a5521b1a454ec70f62e0ab702c085610183557f0de1f72745a5af2a34cac412e00eb6c8b5db1f3b52fa1bff88076c2726b83b08610184557f2e8f152603b2fac10d6a14c841327c23c502537367ccb1e42fab9a3bd9db2a8d610185557f14e16c3e0dcfd7e621a32627ebf37f6c0afb4467d34c7b7aeffded11769dec85610186557f0be1e62127948b4805c85a1d836574f0892ca6473fcde98f3fd1781248a9768f610187557f0930288fbd7c849197c8372f1dd8f9087f8a03f09b9cd904a469c15ef6b1b515610188557f231cac34e215e3f404d2fcfb79e0705deeb3d40978f0ee31072f6cbc1b579e33610189557f2e0e3cd2718ac7199b81dc14e841de40a9536b7ffe95fa1fc9c6b799e43e2c9761018a557f0718452506f0a232e98966d84b1a4675a66bd80263a2dc58bdac873825752fc361018b557f162d4ed998307d6e132edbf5c11f62f53d4636aa10cb3c2244c2bf5577168c3761018c557f247d6a5544a8f295a894ae77c7efcdcbf52e3bf4e5d0c0d2f40557a61d44984861018d557f0b8de3868471f109e91670daca698dba917d1c5535821f33aa9598d1db8e3d1961018e557f29851997020f527c92e20f030d232b81d334144a641e6a8866b46dd925005bbb61018f557f1a9cfcbe29a2b6503a03049727c0bca3111afd62f2836f392080321d1b4ef642610190557f1aa3ead91fa89cc1d6cb1d0eb76a27190c6abfdd3265d6d0a1e5c58feddaddf6610191557f0702fc26a7d367e6677efefd95204a7e00144c2fc7dbc2a581aa00d99f51f08161019255604051611b3f908162000725823960805181818161025c015281816102d601528181610c3a01528181610ff7015281816113c0015281816114e10152818161154f015281816117aa01526118a0015260a05181818161042c01528181610ce401528181610fd401528181611194015281816113690152818161166b01528181611780015281816118c901526119b5015260c05181818161022d0152818161051b01528181610c0301526113070152f35b60449060405190637ccdcc9760e11b8252600482015260206024820152fd5b63682e504160e11b8152600490fd5b604051631e4fbdf760e01b815260006004820152602490fd5b600080fd5b634e487b7160e01b600052604160045260246000fd5b80156200071e57600190602081108216604e8210831617620007165781906005925b808211620006e957505081600019048111620006d3570290565b634e487b7160e01b600052601160045260246000fd5b909280600019048111620006d3578184166200070c575b800292811c90620006b9565b8092029162000700565b905060050a90565b5060019056fe60406080815260048036101561001457600080fd5b600091823560e01c80631b9b8aa714610cc85780631ffc735d14610ba957806324a47aeb14610b815780633bfa6fce14610b645780633dfb88b214610a8a5780633e1a8cc114610a5057806358bfc379146108f95780635bb93995146108c85780635bf1fa4d1461085257806362a361bb146107f757806369e7c586146107cf578063715018a61461077557806381d6a24a1461074f5780638da5cb5b146107275780639cfced97146106cb578063a27154ba146106b0578063b6a64acd1461068b578063bea140b31461056b578063c00bdbcc146104da578063c15da65b146104b2578063d9c55ce114610206578063dda89a6e146101e2578063e93fb4d4146101b85763f2fde38b1461012857600080fd5b346101b45760203660031901126101b4576001600160a01b038235818116939192908490036101b057610159611742565b831561019a57505082546001600160a01b0319811683178455167f8be0079c531659141344cd1fd0a4f28419497f9722a3daafe3b4186f6b6457e08380a380f35b51631e4fbdf760e01b8152908101849052602490fd5b8480fd5b8280fd5b5082346101df5760203660031901126101df57506101d86020923561170e565b9051908152f35b80fd5b838234610202578160031936011261020257602090610171549051908152f35b5080fd5b50829034610202578160031936011261020257610221611742565b610171908154906102537f00000000000000000000000000000000000000000000000000000000000000008093610f20565b6102d4576102807f000000000000000000000000000000000000000000000000000000000000000061196e565b90600154855261014c6020528420555b600154600181018091116102c15790816102ac92600155610f0d565b90558061016f5561016e60ff19815416905580f35b634e487b7160e01b845260118552602484fd5b7f0000000000000000000000000000000000000000000000000000000000000000845b8181106103605750602181101561034d5760021b6002015490600154855261014c6020528420558360025b60868110610339575050610334610eda565b610290565b61034582820182610ef6565b018490610322565b634e487b7160e01b855260328652602485fd5b60218110158061038d5781608601908154806103a0575b5061038d5790866103889255610f65565b6102f7565b634e487b7160e01b875260328852602487fd5b9585979193959894929851976103b589610d8d565b60a0368a376103c38761196e565b93865b60ff81168a81101561041c578761040857908b6103fd610403936103f0848e600290811b01610f55565b90549060031b1c92610f9c565b5261197f565b6103c6565b50634e487b7160e01b885260328d52602488fd5b509b9796959a94999850919290927f00000000000000000000000000000000000000000000000000000000000000009b5b60ff81168d81101561046d57908b6103fd610468938d610f9c565b61044d565b5050979098506104839195949992969a50611281565b600184019081851161049f57906104999161189d565b89610377565b634e487b7160e01b8a5260118b5260248afd5b505034610202576020366003190112610202576104d7906104d1611742565b356112e8565b80f35b50346101b45760203660031901126101b4576104f4611742565b600154835261014c602052813590832055610510600154610f65565b6001556101718054917f000000000000000000000000000000000000000000000000000000000000000083018093116105585750558061016f5561016e60ff19815416905580f35b634e487b7160e01b845260119052602483fd5b50346101b45760603660031901126101b45736602312156101b45780516060810181811067ffffffffffffffff8211176106785782526064813682116106745784905b82821061066457505082516304b98e1d60e31b8152938592915084015b6003831061064d575050506020826064817368B1D87F95878fE05B998F19b66F4baba5De1aed5af491821561064357839261060b575b6020838351908152f35b9091506020813d60201161063b575b8161062760209383610da9565b810103126101b45760209250519038610601565b3d915061061a565b81513d85823e3d90fd5b6001908251815260208091019201920191906105cb565b81358152602091820191016105ae565b8580fd5b634e487b7160e01b855260418452602485fd5b83823461020257816003193601126102025760209060ff61016e541690519015158152f35b83823461020257816003193601126102025760209051818152f35b5090346101b45760a03660031901126101b45736602312156101b4578151906106f382610d8d565b8160a4913660a4116106745760209550905b828210610718575050506101d890611281565b81358152908501908501610705565b838234610202578160031936011261020257905490516001600160a01b039091168152602090f35b5082346101df57806003193601126101df57506101705460015482519182526020820152f35b83346101df57806003193601126101df5761078e611742565b80546001600160a01b03198116825581906001600160a01b03167f8be0079c531659141344cd1fd0a4f28419497f9722a3daafe3b4186f6b6457e08280a380f35b83823461020257816003193601126102025760209060ff61016e5460081c1690519015158152f35b5090346101b457816003193601126101b45736602312156101b45781519061081e82610d5b565b81604491366044116106745760209550905b828210610843575050506101d8906111df565b81358152908501908501610830565b5082346101df5761086236610dcb565b9083519261086f84610d8d565b60a036853760218210156108b557509060056020956101d8949360021b908160020154855260038201548886015281015486850152015460608301526080820152611281565b634e487b7160e01b815260328652602490fd5b838234610202576020906101d86108de36610dcb565b8351916108ea83610d5b565b843684378252848201526111df565b5082346101df576020928360031936011261020257803567ffffffffffffffff91828211610a4c5736602383011215610a4c5781810135928311610a3957508160051b9084519261094c87840185610da9565b835285830160248193830101913683116106745791859391602489969401905b828210610a2757505086519251858401929150845b818110610a0e575050508161099e9103601f198101835282610da9565b84519080519084845b8381106109f95750505081908101838152039060025afa156109ee577f30644e72e131a029b85045b68181585d2833e84879b9709143e1f593f00000019051069051908152f35b9051903d90823e3d90fd5b828101820151858201528795508691016109a7565b8251845289968896509384019390920191600101610981565b8135815287955090860190860161096c565b634e487b7160e01b845260419052602483fd5b8380fd5b5082346101df57806003193601126101df575060ff61016e541615610a7d5760209061016f549051908152f35b51631e596e4360e11b8152fd5b50346101b45760803660031901126101b45736602312156101b4578051916080830183811067ffffffffffffffff821117610b515782526084833682116106745782905b828210610b41575050825163248f667760e01b8152939050848285015b838210610b2a5750505050602082608481733Aa5ebB10DC797CAC828524e59A333d0A371443c5af491821561064357839261060b576020838351908152f35b600190835181526020809101930191019091610aeb565b8135815260209182019101610ace565b634e487b7160e01b855260418252602485fd5b8382346102025781600319360112610202576020906101d861118e565b5082346101df5760203660031901126101df57506101d8602092610ba3611742565b35610fad565b50346101b45760203660031901126101b457610bc3611742565b61017192835492610bd4813561177d565b60019460018501808611610cb5578155610c2890610bf0610eda565b8361016f5561016e60ff198154169055547f000000000000000000000000000000000000000000000000000000000000000090610f20565b15610c38575b6020848451908152f35b7f0000000000000000000000000000000000000000000000000000000000000000906021821015610ca25750819060021b6002018054600154835261014c60205284832055610c88600154610f65565b6001555560865b60a7811015610c2e578181558401610c8f565b634e487b7160e01b835260329052602482fd5b634e487b7160e01b845260118352602484fd5b5082346101df5760203660031901126101df57823590610d08827f0000000000000000000000000000000000000000000000000000000000000000610de6565b61017154809110610d4057506021821015610d2d576020838361014d01549051908152f35b634e487b7160e01b815260328452602490fd5b8460449184865192627289df60e61b84528301526024820152fd5b6040810190811067ffffffffffffffff821117610d7757604052565b634e487b7160e01b600052604160045260246000fd5b60a0810190811067ffffffffffffffff821117610d7757604052565b90601f8019910116810190811067ffffffffffffffff821117610d7757604052565b6040906003190112610de1576004359060243590565b600080fd5b908015610e9c578115610e95578180600114610e8d57600214610e7c5760208110610133831016604e8210600b84101617610e7757600190815b808211610e4e57505081600019048111610e38570290565b634e487b7160e01b600052601160045260246000fd5b909280600019048111610e3857818416610e6e575b800292811c90610e20565b80920291610e63565b900a90565b905060ff8111610e38576001901b90565b505050600190565b5050600090565b5050600190565b6021811015610eb65761012b0190600090565b634e487b7160e01b600052603260045260246000fd5b9060018201809211610e3857565b61014d5b61016e8110610eea5750565b60008155600101610ede565b818110610f01575050565b60008155600101610ef6565b81810292918115918404141715610e3857565b8115610f2a570690565b634e487b7160e01b600052601260045260246000fd5b6021811015610eb65760021b60a70190600090565b6004821015610eb6570190600090565b6000198114610e385760010190565b60405190610f8182610d8d565b60a0368337565b60405190610f9582610d5b565b6040368337565b906005811015610eb65760051b0190565b801561117c5760ff9061016e60ff8154161561116a576020926020831161114a57610171547f000000000000000000000000000000000000000000000000000000000000000094907f00000000000000000000000000000000000000000000000000000000000000005b816110228289610de6565b101561103b5761103461102291610f65565b9050611017565b939495505082851061112d578483036110765750505061016f54916021811015610eb65761014d01829055805461ff00191661010017905590565b61016f5495949291905b8383106110a9575050506021811015610eb65761014d01839055805461ff001916610100179055565b9091956001906110b88861196e565b60005460a0929190831c8616156110f5576110eb92506040918251926110dd84610d5b565b3684378252848201526111df565b965b019190611080565b80611127939260409081519461110a86610d8d565b368637845281878501528301528060608301526080820152611281565b966110ed565b6044858460405191627289df60e61b835260048301526024820152fd5b604051632cd31ae960e01b81526004810184905260206024820152604490fd5b604051631e596e4360e11b8152600490fd5b604051630543d40760e11b8152600490fd5b600180547f000000000000000000000000000000000000000000000000000000000000000092915b816111c18286610de6565b10156111da576111d36111c191610f65565b90506111b6565b925050565b6040516314d2f97b60e11b815290600090600483015b6002831061126a57505050602081604481739A9f2CCfdE556A7E9Ff0848998Aa4a0CFD8863AE5af490811561125e5760009161122f575090565b90506020813d602011611256575b8161124a60209383610da9565b81010312610de1575190565b3d915061123d565b6040513d6000823e3d90fd5b6001908251815260208091019201920191906111f5565b604051630926f44b60e31b815290600090600483015b600583106112d15750505060208160a48173c6e7DF5E7b4f2A278906862b61205850344D4e7d5af490811561125e5760009161122f575090565b600190825181526020809101920192019190611297565b60ff9061016e9160ff8354166116fc576101719081549081156116ea577f0000000000000000000000000000000000000000000000000000000000000000916113318382610f20565b6114c5575b50505050600190815482811461146a575061134f61118e565b90600083610170928354915b611408575b50505061138d827f0000000000000000000000000000000000000000000000000000000000000000610de6565b905483548091146113ba575b50506021811015610eb65760021b60a7015461016f5560ff19825416179055565b836113e47f000000000000000000000000000000000000000000000000000000000000000061196e565b915b8381106113f4575050611399565b61140085600085611990565b0184906113e6565b8554821015611465578015158061145c575b611453578561144a81946114398860006114348a5461170e565b611990565b6114438754610f65565b8755610f65565b9201919261135b565b50505050505050565b5080831461141a565b611360565b9050156114ac576000805261014c6020527f2f1ae789e51094ec473affec14fe3c88a47d4230101ae4544eefebff81efc6d75461016f55815460ff1916179055565b60405163042a2e7160e11b815260006004820152602490fd5b826114d7916114d2611742565b610f20565b61154d57506115057f000000000000000000000000000000000000000000000000000000000000000061196e565b60015460005261014c6020526040600020555b6001549060018201809211610e38578161153492600155610f0d565b9055600061016f55815460ff1916825538808080611336565b7f00000000000000000000000000000000000000000000000000000000000000009060005b8281106115cb5750506021811015610eb65760021b6002015460015460005261014c60205260406000205560025b608681106115b657506115b1610eda565b611518565b806115c5600480930182610ef6565b016115a0565b60218110159081610eb65780608601918254806115f9575b50610eb65760006115f49255610f65565b611572565b999792989394604097929796919651986116128a610d8d565b60a0368b376116208961196e565b956000955b8689168e811015611659578a610eb657878f986103fd8f91938f611652956103f091600290811b01610f55565b9650611625565b5092959c50929a97959998969a9390937f00000000000000000000000000000000000000000000000000000000000000009c5b808d168e8110156116b8578e9695949392918d6103fd6116ac938f610f9c565b9091929394955061168c565b5050979496939b50976116d091995099949199611281565b60018301808411610e38576116e49161189d565b386115e3565b6040516316a0341160e11b8152600490fd5b604051630d36aec160e01b8152600490fd5b80600154111561172a5760005261014c60205260406000205490565b6024906040519063042a2e7160e11b82526004820152fd5b6000546001600160a01b0316330361175657565b60405163118cdaa760e01b8152336004820152602490fd5b600019810191908211610e3857565b907f00000000000000000000000000000000000000000000000000000000000000006000198101908111917f000000000000000000000000000000000000000000000000000000000000000060005b6021811015610eb657806086019585875490610e3857858103611854575090600061184f9261184860406006611840825161180681610d8d565b60a036823760029588871b809701948554835260038801546020840152600488015490830152600587015460608301526080820152611281565b930190610ef6565b9755610f65565b6117cc565b61186e919294979650611887939550600285811b01610f55565b90919082549060031b91821b91600019901b1916179055565b0361188f5750565b6118998154610f65565b9055565b917f00000000000000000000000000000000000000000000000000000000000000009081831161195c577f0000000000000000000000000000000000000000000000000000000000000000916000198301928311935b60218110156119475780608601958587549061193257858103611854575090600061192d9261184860406006611840825161180681610d8d565b6118f3565b60246000634e487b7160e01b81526011600452fd5b60246000634e487b7160e01b81526032600452fd5b60405163d1459f7960e01b8152600490fd5b6021811015610eb657610172015490565b60ff1660ff8114610e385760010190565b9291808211611b03576119af6119a583610ea3565b90549060031b1c90565b906119d97f000000000000000000000000000000000000000000000000000000000000000061176e565b8214611a335750906119ff611a31939461186e611a04946119f985610f40565b50610f55565b610ea3565b611a1a611a158284549060031b1c90565b610f65565b825460001960039390931b92831b1916911b179055565b565b9190611a4560005460ff9060a01c1690565b15611aa05750611a9a611a76611a319495611a5e610f88565b90611a6885610f40565b5054825260208201526111df565b915b611a95611a8482610ea3565b8154906000199060031b1b19169055565b610ecc565b90611990565b9392611aaa610f74565b9260005b60ff811687811015611ade5790611ad9916103fd611ad26119a5846119f98a610f40565b9188610f9c565b611aae565b505092611afd90611a3195611af7611a9a949883610f9c565b52611281565b91611a78565b5050905056fea2646970667358221220a34d78a09c432af375505f56651e0e9f0fb24c10555ffcdc050440903cb42a6664736f6c63430008180033a2646970667358221220caf9dd60d3cc50b4a263d7b87702229abafa90d927932f500453c2c75f691ef964736f6c63430008180033",
  "deployedBytecode": "0x60806040818152600490813610156200001757600080fd5b600092833560e01c908163683f3dc31462000341575063b43c4969146200003d57600080fd5b346200028a57610180806003193601126200033d57816023193601126200033d5760803660631901126200033d578160e3193601126200033d57610124356001600160a01b0381811692918390036200029857610144359281841680940362000339576101643592828416809403620003355760443591660400000000000083101562000325576084359060ff821680920362000321578751906122649182810167ffffffffffffffff938282108583111762000304576020918391620028f883398681520301908cf080156200031757861697895191606083018381108582111762000304578b52825260208201938985528a83019182528a519661256a8089019589871090871117620002f0576200038e89398c35855260243560208601528b85015260643560ff8116809103620002ec576060850152608084015260a43560ff8116809103620002e85760a084015260c4359160ff8316809303620002e857869488809492819360c088015260e43560e08801526101043561010088015251166101208601525116610140840152511661016082015203019087f08015620002de571693823b156200029857835186816024818363f2fde38b60e01b988983528b888401525af18015620002d457620002be575b50843b15620002985783516370e39c9560e11b8152869081818481838b5af18015620002b4576200029c575b5050843b1562000298578351928352820152838160248183875af180156200028e5762000272575b6020838351908152f35b6200027e849162000362565b6200028a578262000268565b8280fd5b82513d86823e3d90fd5b8580fd5b620002a79062000362565b6200029857853862000240565b86513d84823e3d90fd5b620002cc9096919662000362565b943862000214565b85513d89823e3d90fd5b84513d88823e3d90fd5b8c80fd5b8d80fd5b50634e487b7160e01b8e5260418d5260248efd5b634e487b7160e01b8e5260418d5260248efd5b89513d8d823e3d90fd5b8980fd5b86516302c3596560e51b81528890fd5b8780fd5b8680fd5b8380fd5b8490346200035e57816003193601126200035e5780600a60209252f35b5080fd5b67ffffffffffffffff81116200037757604052565b634e487b7160e01b600052604160045260246000fdfe60e0806040526200256a80380380916200001a828562000527565b833981018181039161018083126200048c578051926200003e83602084016200054b565b6080605f198301126200048c57604051946001600160401b03926080870184811188821017620004bd57604052620000796060860162000585565b8752620000896080860162000585565b60208801526200009c60a0860162000585565b94604088019586526060620000c9620000b860c0840162000585565b98828b01998a5260e084016200054b565b9261011f1901126200048c576040516060810181811087821117620004bd576040526101208201516001600160a01b03811681036200048c578152610140820151916001600160a01b03831683036200048c57602082019283526101600151926001600160a01b03841684036200048c576040820193845233156200050e5760008054336001600160a01b0319821681178355604051939290916001600160a01b0316907f8be0079c531659141344cd1fd0a4f28419497f9722a3daafe3b4186f6b6457e09080a37f0ad794e7fb50257e0edc93fe4616c69ea691e7a6c653333b6a5b507d798947276001557ec31c90221285dc87ee66daadc19f64f922e45a613f4f5429d74ddc7d66e0236002557f2afdf0e1d10d07d0df3a8481202bf2595108195e34d4ccb88742641c576aa77d6003557f177bbb5acaafc1f1deb73b8ae33f97132089ab84039048a096e202b1f8c429106004557f25c1a155f21ae70ca3b8bdb27961efdee58bdafff83274c18dd37d0f0a8bfbb5600555805191602082019283517f30644e72e131a029b85045b68181585d2833e84879b9709143e1f593f0000001808080858196099380098180828187620292fc090894620292f809096001088181811115620004f8575b508103908111620004e25760009008620004d35750519081600755519081600855604051978860408101109060408a011117620004bd57604088016040526040368937875260208701526040516314d2f97b60e11b8152956000600488015b60028210620004a65750505060208660448173__$1540826e134b1b69b7091c82576ee3aadd$__5af480156200049a576000906200045c575b6020965060805260018060a01b0390511660018060a01b0319601154161760115560018060a01b0390511660018060a01b0319601254161760125560018060a01b0390511660018060a01b0319601354161760135560c0528051600e550151600f5560ff83511663ff00000062ff000061ff00602060105497015160081b16935160101b16935160181b169363ffffffff1916171717176010554260a052604051611fd59081620005958239608051816109eb015260a051818181610540015281816108db01528181610a2d01528181610d1b015281816112fb015281816113d3015281816115a90152611982015260c0518181816105670152818161090201528181610a5401528181610cf70152818161131e015281816113fa015281816115d001526119a90152f35b506020863d60201162000491575b81620004796020938362000527565b810103126200048c576020955162000331565b600080fd5b3d91506200046a565b6040513d6000823e3d90fd5b6020806001928551815201930191019091620002f8565b634e487b7160e01b600052604160045260246000fd5b6379fae7af60e01b8152600490fd5b634e487b7160e01b600052601160045260246000fd5b909150828101809111620004e257903862000299565b604051631e4fbdf760e01b815260006004820152602490fd5b601f909101601f19168101906001600160401b03821190821017620004bd57604052565b91908260409103126200048c57604080519081016001600160401b03811182821017620004bd576040526020808294805184520151910152565b519060ff821682036200048c5756fe6080604052600436101561001257600080fd5b6000803560e01c8062329f2f146119645780630396a0ce1461193f57806306912d3c1461182d5780630f4cf6921461180f578063167fd483146117df578063184ff47f1461159557806331e766a514611570578063394b78a2146113a35780633dfb88b2146113445780634909229f146112e45780634f367f0f146112bf57806358bfc379146111755780635bb93995146111445780635d5909dd1461112657806362a361bb14611101578063683f3dc3146110e5578063715018a61461108b5780637296aaea14610bae5780637d0a81c814610aff57806386f3c3f714610a0e5780638aa0ba92146109d35780638da5cb5b146109ac5780639c971729146108b95780639cfced9714610861578063ac98e5df1461081f578063ae93a21214610520578063b5f38c81146104fd578063bc14ee2b146104c0578063bea140b314610460578063c17268d914610442578063e1c7392a1461023d578063f2fde38b146101a75763fba630f21461018757600080fd5b346101a457806003193601126101a4576020600954604051908152f35b80fd5b50346101a45760203660031901126101a4576004356001600160a01b0381811691829003610239576101d7611f53565b811561022057600054826bffffffffffffffffffffffff60a01b821617600055167f8be0079c531659141344cd1fd0a4f28419497f9722a3daafe3b4186f6b6457e0600080a380f35b604051631e4fbdf760e01b815260048101849052602490fd5b8280fd5b50346101a457806003193601126101a45760065460ff81166104305760019060ff1916176006556001600c5401600c5560405161027981611a96565b60403682377f12817f4161f2f5ded33f26c55735a77e80e4f8975483c8c2704745128417f7118152602090818101838152604051916102b783611a96565b600083526040516102c781611ab2565b84610140948536843701526000846040516102e181611a96565b8281520152604051926102f384611ab2565b368437518252518282015260405161030a81611a96565b7f171e826ad4a870fd925e0bf0e87884e70e080879c2205ef10114f28a3b6f6dd78152828101927f2bd407d897fbbca9f88adfd2d15252e69de8c1564eb4d3d27162e259172f1a1d84526040519261036184611a96565b600184528184015284816103758486611c85565b601254604051631ffc735d60e01b815260048101929092529092839160249183916001600160a01b03165af18015610425576103f3575b857fe2067f06dd7b8159b21a5490f8663f6bb031d9b35ed6d298b5489674cb9cda4b6101a08688876103e16040518094611b87565b5161016083015251610180820152a180f35b819392933d831161041e575b6104098183611b23565b81010312610419579038806103ac565b600080fd5b503d6103ff565b6040513d88823e3d90fd5b6040516342a2e18d60e01b8152600490fd5b50346101a457806003193601126101a4576020600b54604051908152f35b50346101a45760603660031901126101a45736602312156101a45760405161048781611b07565b606481368211610419576020926004905b8382106104b157846104a984611eec565b604051908152f35b81358152908401908401610498565b50346101a457806003193601126101a457606060018060a01b03806011541690806012541690601354169060405192835260208301526040820152f35b50346101a457806003193601126101a457602060ff600a54166040519015158152f35b50346101a45760208060031936011261081b5761053b611f53565b6105657f000000000000000000000000000000000000000000000000000000000000000042611c62565b7f0000000000000000000000000000000000000000000000000000000000000000101561080957600a5460ff81166107f75760ff1916600117600a55601154604051630c0775ff60e31b81526001600160a01b03918216908381600481855afa9081156107af578391859187916107ba575b5060046040518094819363b6a64acd60e01b8352165afa9081156107af578591610782575b50156107715782849160246040518094819363dd0982a360e01b835260043560048401525af1908115610766578491610739575b50806009556040519061064282611b07565b6060368337815260ff60105460181c16600019810160ff81116107255760051115610711579161068084926004945484820152866040820152611eec565b600b55601154166040519283809263122db15360e01b82525afa9182156107065783926106d8575b505080600d556009547fa80928657383ff9d374f1409cf51e7460a64472b6baeb5ded1199830c15bae018380a380f35b90809250813d83116106ff575b6106ef8183611b23565b81010312610419575138806106a8565b503d6106e5565b6040513d85823e3d90fd5b634e487b7160e01b85526032600452602485fd5b634e487b7160e01b86526011600452602486fd5b90508281813d831161075f575b6107508183611b23565b81010312610419575138610630565b503d610746565b6040513d86823e3d90fd5b604051624a03c360e31b8152600490fd5b6107a29150843d86116107a8575b61079a8183611b23565b810190611d63565b386105fc565b503d610790565b6040513d87823e3d90fd5b92505081813d83116107f0575b6107d18183611b23565b810103126107ec575182811681036107ec57838391386105d7565b8480fd5b503d6107c7565b60405163084ef7b960e41b8152600490fd5b604051630931513d60e11b8152600490fd5b5080fd5b50346101a457806003193601126101a457608060105460ff604051918181168352818160081c166020840152818160101c16604084015260181c166060820152f35b50346101a45760a03660031901126101a45736602312156101a45760405161088881611aeb565b60a481368211610419576020926004905b8382106108aa57846104a984611e85565b81358152908401908401610899565b50346101a45760203660031901126101a4576004356108d6611f53565b6109007f000000000000000000000000000000000000000000000000000000000000000042611c62565b7f000000000000000000000000000000000000000000000000000000000000000010156108095760125482906001600160a01b0316803b1561081b5781809160246040518094819363c15da65b60e01b83528860048401525af180156109a15761098d575b50807f1245b881cb30fdad22b2f9fde2d5c2a3605bbdf272d5e8a2235d8c9e81aba2ce91a280f35b61099690611a6c565b61081b578138610965565b6040513d84823e3d90fd5b50346101a457806003193601126101a457546040516001600160a01b039091168152602090f35b50346101a457806003193601126101a45760206040517f00000000000000000000000000000000000000000000000000000000000000008152f35b50346101a457610a1d36611c4c565b610a28929192611f53565b610a527f000000000000000000000000000000000000000000000000000000000000000042611c62565b7f000000000000000000000000000000000000000000000000000000000000000010156108095760ff600a54166107f7576011546001600160a01b031690813b1561023957829160448392604051948593849263cfa1fa0360e01b845289600485015260248401525af180156109a157610af0575b50907fbe5eae95ff0a9a2779506ae62da06dda1e349311d3f2b6ceb990ea42b6a5f20b8280a280f35b610af990611a6c565b38610ac7565b50346101a45736600319016080811261081b5760405191606083019183831067ffffffffffffffff841117610b9a57604090838252126101a45760206104a98484610b4981611a96565b6004358152602435608083015281528281016044358152604082019060643582528460405193610b7885611acf565b6080368637805151855251015185840152516040830152516060820152611d7b565b634e487b7160e01b82526041600452602482fd5b50346101a45760403660031901126101a45767ffffffffffffffff806004351161081b5736602360043501121561081b5780600435600401351161081b57366024610160600435600401350260043501011161081b57806024351161081b5736602360243501121561081b5760243560040135116101a45736602480356004013560061b81350101116101a45760243560040135600435600401350361107957805b600435600401358110610c61575080f35b6024356004013581101561106557610160600435828202013603602319011261081b5760405190610c9182611a96565b60043561016082020160248101358352366063909101121561023957604051610cb981611ab2565b803661018461016085026004350101116107ec57604461016084026004350101905b61018461016085026004350101821061105557505060208301527f0000000000000000000000000000000000000000000000000000000000000000610d407f000000000000000000000000000000000000000000000000000000000000000042611c62565b101561104357600c54600e5481101561103157600080516020611f8083398151915280602435600685901b01604401358009818060248035600688901b0101358009620292fc090884600080516020611f808339815191528080602435600688901b0160440135800981806024803560068b901b0101358009620292f80909600108600080516020611f8083398151915280602435600688901b0160440135800981806024803560068b901b0101358009620292fc09081115610f65575b600080516020611f8083398151915291610e439083808060243560068a901b0160440135800981806024803560068d901b0101358009620292f8090960010890611c62565b08610f5357600101600c556001825260406023198260061b602435013603011261023957826020610e97604051610e7981611a96565b60248035600687901b01908101358252604401358382015285611c85565b601254604051631ffc735d60e01b815260048101929092529092839160249183916001600160a01b03165af1801561076657610f28575b507fe2067f06dd7b8159b21a5490f8663f6bb031d9b35ed6d298b5489674cb9cda4b6101a0600193610f036040518092611b87565b60248035600686901b019081013561016083015260440135610180820152a101610c50565b602090813d8311610f4c575b610f3e8183611b23565b810103126102395738610ece565b503d610f34565b6040516379fae7af60e01b8152600490fd5b50600080516020611f8083398151915290508080602435600686901b01604401358009818060248035600689901b0101358009620292fc090801600080516020611f8083398151915280602435600686901b01604401358009818060248035600689901b0101358009620292fc09081161101d57600080516020611f8083398151915284610e43828080602435600689901b0160440135800981806024803560068c901b0101358009620292fc090801925050610dfe565b634e487b7160e01b84526011600452602484fd5b604051631ec0b2f760e01b8152600490fd5b60405163148fb9a960e31b8152600490fd5b8135815260209182019101610cdb565b634e487b7160e01b82526032600452602482fd5b60405163ca3487f760e01b8152600490fd5b50346101a457806003193601126101a4576110a4611f53565b80546001600160a01b03198116825581906001600160a01b03167f8be0079c531659141344cd1fd0a4f28419497f9722a3daafe3b4186f6b6457e08280a380f35b50346101a457806003193601126101a4576020604051600a8152f35b50346101a45760403660031901126101a45760206104a961112136611b45565b611e1e565b50346101a457806003193601126101a4576020600d54604051908152f35b50346101a45760206104a961115836611c4c565b6040519161116583611a96565b6040368437825283820152611e1e565b50346101a457602090816003193601126101a45767ffffffffffffffff60043581811161023957366023820112156102395780600401359182116112ab578160051b90604051926111c886840185611b23565b835284830160248193830101913683116112a75791859391602488969401905b8282106112955750506040519251858401929150845b81811061127c575050508161121b9103601f198101835282611b23565b6040519080519084845b8381106112675750505081908101838152039060025afa1561125b57600080516020611f80833981519152905106604051908152f35b604051903d90823e3d90fd5b82810182015185820152879550869101611225565b82518452889688965093840193909201916001016111fe565b813581528795509086019086016111e8565b8580fd5b634e487b7160e01b83526041600452602483fd5b50346101a457806003193601126101a4576040600d54600c5482519182526020820152f35b50346101a457806003193601126101a457604080517f000000000000000000000000000000000000000000000000000000000000000081527f00000000000000000000000000000000000000000000000000000000000000006020820152f35b50346101a45760803660031901126101a45736602312156101a45760405161136b81611acf565b806084913660841161139f57602093506004905b83821061139057846104a984611d7b565b8135815290840190840161137f565b8380fd5b50346101a4576101a08060031936011261081b576113c036611bbb565b90604036610163190112610239576113f87f000000000000000000000000000000000000000000000000000000000000000042611c62565b7f0000000000000000000000000000000000000000000000000000000000000000111561104357600c5491600e548310156110315761016435926101843590600080516020611f8083398151915286818780098280808780098180828187620292fc090894620292f80909600108908082811115611542575b509061147c91611c62565b08610f5357600101600c55600182528460206114a061149a36611c21565b85611c85565b601254604051631ffc735d60e01b815260048101929092529092839160249183916001600160a01b03165af1801561042557611517575b507fe2067f06dd7b8159b21a5490f8663f6bb031d9b35ed6d298b5489674cb9cda4b936115076040518094611b87565b610160830152610180820152a180f35b602090813d831161153b575b61152d8183611b23565b810103126107ec57386114d7565b503d611523565b809293508491500180911161155c5788919061147c611471565b634e487b7160e01b89526011600452602489fd5b50346101a457806003193601126101a457604060075460085482519182526020820152f35b50346101a4576115a436611c4c565b6115ce7f000000000000000000000000000000000000000000000000000000000000000042611c62565b7f0000000000000000000000000000000000000000000000000000000000000000111561104357600c54600e5481101561103157600101600c556013546040516323b872dd60e01b81523360048201523060248201526044810183905260209285926001600160a01b039190859084906064908290889087165af19283156107665785936117c2575b506040519561166587611a96565b604036883786528286019081526040519561167f87611a96565b84875260405161168e81611ab2565b846101409889368437015284846040516116a781611a96565b8281520152604051966116b988611ab2565b368837518652518286015260246117386040516116d581611a96565b7f171e826ad4a870fd925e0bf0e87884e70e080879c2205ef10114f28a3b6f6dd781527f2bd407d897fbbca9f88adfd2d15252e69de8c1564eb4d3d27162e259172f1a1d858201526040519761172a89611a96565b600289528589015287611c85565b9160125416916040519485938492631ffc735d60e01b845260048401525af1801561076657611799575b837f935afc7bb7cc33eb3e24e20dcfc75f5b21fa58e9c82cca06435238efaf9a3a58610160856117956040518092611b87565ba180f35b813d83116117bb575b6117ac8183611b23565b8101031261081b573880611762565b503d6117a2565b6117d890843d86116107a85761079a8183611b23565b5038611657565b50346101a4576101a03660031901126101a45760206104a961180036611bbb565b61180936611c21565b90611c85565b50346101a457806003193601126101a4576020600c54604051908152f35b50346101a45760603660031901126101a4576101c09061184c36611b45565b906040519061185a82611a96565b808252602092839160405161186e81611ab2565b83610140958636843701528260405161188681611a96565b82815201526040519261189884611ab2565b36843780518352015182820152604051906118b282611a96565b7f171e826ad4a870fd925e0bf0e87884e70e080879c2205ef10114f28a3b6f6dd78252828201907f2bd407d897fbbca9f88adfd2d15252e69de8c1564eb4d3d27162e259172f1a1d82526040519361190985611a96565b604435855284015261191b8284611c85565b916119296040518095611b87565b51610160840152516101808301526101a0820152f35b50346101a457806003193601126101a4576040600e54600f5482519182526020820152f35b50346101a457806003193601126101a45761197d611f53565b6119a77f000000000000000000000000000000000000000000000000000000000000000042611c62565b7f0000000000000000000000000000000000000000000000000000000000000000101561080957601254601080546040516324a47aeb60e01b8152911c60ff166004820152906020908290602490829086906001600160a01b03165af19081156109a1578291611a3a575b507fc5624680ab5d50c84507f9e0dc2032163de2bda906ab8a661a53dd4d43bd5dc78280a280f35b90506020813d602011611a64575b81611a5560209383611b23565b8101031261081b575138611a12565b3d9150611a48565b67ffffffffffffffff8111611a8057604052565b634e487b7160e01b600052604160045260246000fd5b6040810190811067ffffffffffffffff821117611a8057604052565b610140810190811067ffffffffffffffff821117611a8057604052565b6080810190811067ffffffffffffffff821117611a8057604052565b60a0810190811067ffffffffffffffff821117611a8057604052565b6060810190811067ffffffffffffffff821117611a8057604052565b90601f8019910116810190811067ffffffffffffffff821117611a8057604052565b80602312156104195760405190611b5b82611a96565b81604491604411610419576004905b828210611b775750505090565b8135815260209182019101611b6a565b805182526020808092015192016000905b600a8210611ba65750505050565b82806001928651815201940191019092611b98565b906101606003198301126104195760405191611bd683611a96565b82600435815281604312156104195760405191611bf283611ab2565b82610164918211610419576024905b828210611c115750505060200152565b8135815260209182019101611c01565b6040906101631901126104195760405190611c3b82611a96565b610164358252610184356020830152565b6040906003190112610419576004359060243590565b91908203918211611c6f57565b634e487b7160e01b600052601160045260246000fd5b906020808301916040805194611c9a86611aeb565b60a0368737845151865283855101518487015281855101518287015260608551015160608701526080855101516080870152610120825195611cdb87611aeb565b60a036883760a081510151875260c0815101518688015260e08151015184880152610100815101516060880152510151608086015281519460a0860186811067ffffffffffffffff821117611a8057611d6097611d4993611d40928652518852611e85565b85870152611e85565b908401528051606084015201516080820152611e85565b90565b90816020910312610419575180151581036104195790565b60405163248f667760e01b81529060049060008284015b838210611e07575050505060208160848173__$e61c65d9562aef5fa6ab22c0f787cf1e30$__5af4908115611dfb57600091611dcc575090565b90506020813d602011611df3575b81611de760209383611b23565b81010312610419575190565b3d9150611dda565b6040513d6000823e3d90fd5b600190835181526020809101930191019091611d92565b6040516314d2f97b60e11b815290600090600483015b60028310611e6e5750505060208160448173__$1540826e134b1b69b7091c82576ee3aadd$__5af4908115611dfb57600091611dcc575090565b600190825181526020809101920192019190611e34565b604051630926f44b60e31b815290600090600483015b60058310611ed55750505060208160a48173__$46fbdf6658faf65265971bdad66851b86c$__5af4908115611dfb57600091611dcc575090565b600190825181526020809101920192019190611e9b565b6040516304b98e1d60e31b815290600090600483015b60038310611f3c5750505060208160648173__$fa059fb1da6d850ca47ea49359bfe89f78$__5af4908115611dfb57600091611dcc575090565b600190825181526020809101920192019190611f02565b6000546001600160a01b03163303611f6757565b60405163118cdaa760e01b8152336004820152602490fdfe30644e72e131a029b85045b68181585d2833e84879b9709143e1f593f0000001a2646970667358221220885293766f7d1db200f1d820722de7fbb2d312142c8c0536813c0bf4c2a107e864736f6c6343000818003360e0346200067c57601f6200226438819003918201601f19168301916001600160401b0383118484101762000681578084926020946040528339810103126200067c575133156200066357600054906040513360018060a01b0384167f8be0079c531659141344cd1fd0a4f28419497f9722a3daafe3b4186f6b6457e0600080a381156200065457506020811162000635576001600160a81b03199091163360ff60a01b1916176000556080819052600560a052620000be9062000697565b60c0527f12817f4161f2f5ded33f26c55735a77e80e4f8975483c8c2704745128417f711610172557f1c8de1edeabc24fc4c1595acaabb70be9b70f351d58c6fa338e1e9a994413bfb610173557f22fcda488c14b34fc60eb073fbe92fe10793e2ab14682e0f057332ddbef3d55c610174557f2db474db7c7212646cb15c6177d87be30711e6c04f1139d8e495ef1d1d998227610175557efde404053ec39a19f6ac347121a2264815dda84f910a388cb372e967a5d08c610176557f0723792ffab6ec6cfb3ece1509b9b4fb07e5bdb2299d1538e6e1db916f90cf89610177557f2a4392ec4e3d1811cd6a950cc865ee6f2342910a6551c5dce38cb995576c7c70610178557f1dead4c14f75e9d8449c80b648dcd4694c2ee50da2ba16e5e438f0d77ab02e34610179557f124c53ce0953fffb7ab5e3c143df6cd48ba747d3959fcb8086405d763ed5455061017a557f02bae19605746a8cd3f0927b2c01630f36f4d1bab9216ca839833e7ff6efa20661017b557f1f8375099becf17173d457d0d07bfb74c7067df1143b5ad987046e8e66817bc961017c557f0e13e954d61bb3fa3b03e7d136ca909b610fa2ca4443d920d94d16684f2b83d461017d557f1416ef2fc4f88fcfc4f9eb12f8e214b1c3e31c6c10ece9cfa51f078a3bbf345761017e557f032f915ff71e198a7955d2697249f40fb94c65812ed24e670c9700f52fdf6e0e61017f557f08bfebf4b3ddb0f8c51dd40193f5996da9f3d799ee0d8beb6be4038132df60b4610180557f065ac498cf4a5acaeb3b6cee826da9f834c961fa39feff6ae925b90dff79b613610181557f2e72c628101a93201b912a3e3fe96d39b0a9076ec39b7935a015c59bb32b8a2a610182557f19bba68e7b9da1e6ec42e52d7ab2adaf3b6a5521b1a454ec70f62e0ab702c085610183557f0de1f72745a5af2a34cac412e00eb6c8b5db1f3b52fa1bff88076c2726b83b08610184557f2e8f152603b2fac10d6a14c841327c23c502537367ccb1e42fab9a3bd9db2a8d610185557f14e16c3e0dcfd7e621a32627ebf37f6c0afb4467d34c7b7aeffded11769dec85610186557f0be1e62127948b4805c85a1d836574f0892ca6473fcde98f3fd1781248a9768f610187557f0930288fbd7c849197c8372f1dd8f9087f8a03f09b9cd904a469c15ef6b1b515610188557f231cac34e215e3f404d2fcfb79e0705deeb3d40978f0ee31072f6cbc1b579e33610189557f2e0e3cd2718ac7199b81dc14e841de40a9536b7ffe95fa1fc9c6b799e43e2c9761018a557f0718452506f0a232e98966d84b1a4675a66bd80263a2dc58bdac873825752fc361018b557f162d4ed998307d6e132edbf5c11f62f53d4636aa10cb3c2244c2bf5577168c3761018c557f247d6a5544a8f295a894ae77c7efcdcbf52e3bf4e5d0c0d2f40557a61d44984861018d557f0b8de3868471f109e91670daca698dba917d1c5535821f33aa9598d1db8e3d1961018e557f29851997020f527c92e20f030d232b81d334144a641e6a8866b46dd925005bbb61018f557f1a9cfcbe29a2b6503a03049727c0bca3111afd62f2836f392080321d1b4ef642610190557f1aa3ead91fa89cc1d6cb1d0eb76a27190c6abfdd3265d6d0a1e5c58feddaddf6610191557f0702fc26a7d367e6677efefd95204a7e00144c2fc7dbc2a581aa00d99f51f08161019255604051611b3f908162000725823960805181818161025c015281816102d601528181610c3a01528181610ff7015281816113c0015281816114e10152818161154f015281816117aa01526118a0015260a05181818161042c01528181610ce401528181610fd401528181611194015281816113690152818161166b01528181611780015281816118c901526119b5015260c05181818161022d0152818161051b01528181610c0301526113070152f35b60449060405190637ccdcc9760e11b8252600482015260206024820152fd5b63682e504160e11b8152600490fd5b604051631e4fbdf760e01b815260006004820152602490fd5b600080fd5b634e487b7160e01b600052604160045260246000fd5b80156200071e57600190602081108216604e8210831617620007165781906005925b808211620006e957505081600019048111620006d3570290565b634e487b7160e01b600052601160045260246000fd5b909280600019048111620006d3578184166200070c575b800292811c90620006b9565b8092029162000700565b905060050a90565b5060019056fe60406080815260048036101561001457600080fd5b600091823560e01c80631b9b8aa714610cc85780631ffc735d14610ba957806324a47aeb14610b815780633bfa6fce14610b645780633dfb88b214610a8a5780633e1a8cc114610a5057806358bfc379146108f95780635bb93995146108c85780635bf1fa4d1461085257806362a361bb146107f757806369e7c586146107cf578063715018a61461077557806381d6a24a1461074f5780638da5cb5b146107275780639cfced97146106cb578063a27154ba146106b0578063b6a64acd1461068b578063bea140b31461056b578063c00bdbcc146104da578063c15da65b146104b2578063d9c55ce114610206578063dda89a6e146101e2578063e93fb4d4146101b85763f2fde38b1461012857600080fd5b346101b45760203660031901126101b4576001600160a01b038235818116939192908490036101b057610159611742565b831561019a57505082546001600160a01b0319811683178455167f8be0079c531659141344cd1fd0a4f28419497f9722a3daafe3b4186f6b6457e08380a380f35b51631e4fbdf760e01b8152908101849052602490fd5b8480fd5b8280fd5b5082346101df5760203660031901126101df57506101d86020923561170e565b9051908152f35b80fd5b838234610202578160031936011261020257602090610171549051908152f35b5080fd5b50829034610202578160031936011261020257610221611742565b610171908154906102537f00000000000000000000000000000000000000000000000000000000000000008093610f20565b6102d4576102807f000000000000000000000000000000000000000000000000000000000000000061196e565b90600154855261014c6020528420555b600154600181018091116102c15790816102ac92600155610f0d565b90558061016f5561016e60ff19815416905580f35b634e487b7160e01b845260118552602484fd5b7f0000000000000000000000000000000000000000000000000000000000000000845b8181106103605750602181101561034d5760021b6002015490600154855261014c6020528420558360025b60868110610339575050610334610eda565b610290565b61034582820182610ef6565b018490610322565b634e487b7160e01b855260328652602485fd5b60218110158061038d5781608601908154806103a0575b5061038d5790866103889255610f65565b6102f7565b634e487b7160e01b875260328852602487fd5b9585979193959894929851976103b589610d8d565b60a0368a376103c38761196e565b93865b60ff81168a81101561041c578761040857908b6103fd610403936103f0848e600290811b01610f55565b90549060031b1c92610f9c565b5261197f565b6103c6565b50634e487b7160e01b885260328d52602488fd5b509b9796959a94999850919290927f00000000000000000000000000000000000000000000000000000000000000009b5b60ff81168d81101561046d57908b6103fd610468938d610f9c565b61044d565b5050979098506104839195949992969a50611281565b600184019081851161049f57906104999161189d565b89610377565b634e487b7160e01b8a5260118b5260248afd5b505034610202576020366003190112610202576104d7906104d1611742565b356112e8565b80f35b50346101b45760203660031901126101b4576104f4611742565b600154835261014c602052813590832055610510600154610f65565b6001556101718054917f000000000000000000000000000000000000000000000000000000000000000083018093116105585750558061016f5561016e60ff19815416905580f35b634e487b7160e01b845260119052602483fd5b50346101b45760603660031901126101b45736602312156101b45780516060810181811067ffffffffffffffff8211176106785782526064813682116106745784905b82821061066457505082516304b98e1d60e31b8152938592915084015b6003831061064d5750505060208260648173__$fa059fb1da6d850ca47ea49359bfe89f78$__5af491821561064357839261060b575b6020838351908152f35b9091506020813d60201161063b575b8161062760209383610da9565b810103126101b45760209250519038610601565b3d915061061a565b81513d85823e3d90fd5b6001908251815260208091019201920191906105cb565b81358152602091820191016105ae565b8580fd5b634e487b7160e01b855260418452602485fd5b83823461020257816003193601126102025760209060ff61016e541690519015158152f35b83823461020257816003193601126102025760209051818152f35b5090346101b45760a03660031901126101b45736602312156101b4578151906106f382610d8d565b8160a4913660a4116106745760209550905b828210610718575050506101d890611281565b81358152908501908501610705565b838234610202578160031936011261020257905490516001600160a01b039091168152602090f35b5082346101df57806003193601126101df57506101705460015482519182526020820152f35b83346101df57806003193601126101df5761078e611742565b80546001600160a01b03198116825581906001600160a01b03167f8be0079c531659141344cd1fd0a4f28419497f9722a3daafe3b4186f6b6457e08280a380f35b83823461020257816003193601126102025760209060ff61016e5460081c1690519015158152f35b5090346101b457816003193601126101b45736602312156101b45781519061081e82610d5b565b81604491366044116106745760209550905b828210610843575050506101d8906111df565b81358152908501908501610830565b5082346101df5761086236610dcb565b9083519261086f84610d8d565b60a036853760218210156108b557509060056020956101d8949360021b908160020154855260038201548886015281015486850152015460608301526080820152611281565b634e487b7160e01b815260328652602490fd5b838234610202576020906101d86108de36610dcb565b8351916108ea83610d5b565b843684378252848201526111df565b5082346101df576020928360031936011261020257803567ffffffffffffffff91828211610a4c5736602383011215610a4c5781810135928311610a3957508160051b9084519261094c87840185610da9565b835285830160248193830101913683116106745791859391602489969401905b828210610a2757505086519251858401929150845b818110610a0e575050508161099e9103601f198101835282610da9565b84519080519084845b8381106109f95750505081908101838152039060025afa156109ee577f30644e72e131a029b85045b68181585d2833e84879b9709143e1f593f00000019051069051908152f35b9051903d90823e3d90fd5b828101820151858201528795508691016109a7565b8251845289968896509384019390920191600101610981565b8135815287955090860190860161096c565b634e487b7160e01b845260419052602483fd5b8380fd5b5082346101df57806003193601126101df575060ff61016e541615610a7d5760209061016f549051908152f35b51631e596e4360e11b8152fd5b50346101b45760803660031901126101b45736602312156101b4578051916080830183811067ffffffffffffffff821117610b515782526084833682116106745782905b828210610b41575050825163248f667760e01b8152939050848285015b838210610b2a575050505060208260848173__$e61c65d9562aef5fa6ab22c0f787cf1e30$__5af491821561064357839261060b576020838351908152f35b600190835181526020809101930191019091610aeb565b8135815260209182019101610ace565b634e487b7160e01b855260418252602485fd5b8382346102025781600319360112610202576020906101d861118e565b5082346101df5760203660031901126101df57506101d8602092610ba3611742565b35610fad565b50346101b45760203660031901126101b457610bc3611742565b61017192835492610bd4813561177d565b60019460018501808611610cb5578155610c2890610bf0610eda565b8361016f5561016e60ff198154169055547f000000000000000000000000000000000000000000000000000000000000000090610f20565b15610c38575b6020848451908152f35b7f0000000000000000000000000000000000000000000000000000000000000000906021821015610ca25750819060021b6002018054600154835261014c60205284832055610c88600154610f65565b6001555560865b60a7811015610c2e578181558401610c8f565b634e487b7160e01b835260329052602482fd5b634e487b7160e01b845260118352602484fd5b5082346101df5760203660031901126101df57823590610d08827f0000000000000000000000000000000000000000000000000000000000000000610de6565b61017154809110610d4057506021821015610d2d576020838361014d01549051908152f35b634e487b7160e01b815260328452602490fd5b8460449184865192627289df60e61b84528301526024820152fd5b6040810190811067ffffffffffffffff821117610d7757604052565b634e487b7160e01b600052604160045260246000fd5b60a0810190811067ffffffffffffffff821117610d7757604052565b90601f8019910116810190811067ffffffffffffffff821117610d7757604052565b6040906003190112610de1576004359060243590565b600080fd5b908015610e9c578115610e95578180600114610e8d57600214610e7c5760208110610133831016604e8210600b84101617610e7757600190815b808211610e4e57505081600019048111610e38570290565b634e487b7160e01b600052601160045260246000fd5b909280600019048111610e3857818416610e6e575b800292811c90610e20565b80920291610e63565b900a90565b905060ff8111610e38576001901b90565b505050600190565b5050600090565b5050600190565b6021811015610eb65761012b0190600090565b634e487b7160e01b600052603260045260246000fd5b9060018201809211610e3857565b61014d5b61016e8110610eea5750565b60008155600101610ede565b818110610f01575050565b60008155600101610ef6565b81810292918115918404141715610e3857565b8115610f2a570690565b634e487b7160e01b600052601260045260246000fd5b6021811015610eb65760021b60a70190600090565b6004821015610eb6570190600090565b6000198114610e385760010190565b60405190610f8182610d8d565b60a0368337565b60405190610f9582610d5b565b6040368337565b906005811015610eb65760051b0190565b801561117c5760ff9061016e60ff8154161561116a576020926020831161114a57610171547f000000000000000000000000000000000000000000000000000000000000000094907f00000000000000000000000000000000000000000000000000000000000000005b816110228289610de6565b101561103b5761103461102291610f65565b9050611017565b939495505082851061112d578483036110765750505061016f54916021811015610eb65761014d01829055805461ff00191661010017905590565b61016f5495949291905b8383106110a9575050506021811015610eb65761014d01839055805461ff001916610100179055565b9091956001906110b88861196e565b60005460a0929190831c8616156110f5576110eb92506040918251926110dd84610d5b565b3684378252848201526111df565b965b019190611080565b80611127939260409081519461110a86610d8d565b368637845281878501528301528060608301526080820152611281565b966110ed565b6044858460405191627289df60e61b835260048301526024820152fd5b604051632cd31ae960e01b81526004810184905260206024820152604490fd5b604051631e596e4360e11b8152600490fd5b604051630543d40760e11b8152600490fd5b600180547f000000000000000000000000000000000000000000000000000000000000000092915b816111c18286610de6565b10156111da576111d36111c191610f65565b90506111b6565b925050565b6040516314d2f97b60e11b815290600090600483015b6002831061126a5750505060208160448173__$1540826e134b1b69b7091c82576ee3aadd$__5af490811561125e5760009161122f575090565b90506020813d602011611256575b8161124a60209383610da9565b81010312610de1575190565b3d915061123d565b6040513d6000823e3d90fd5b6001908251815260208091019201920191906111f5565b604051630926f44b60e31b815290600090600483015b600583106112d15750505060208160a48173__$46fbdf6658faf65265971bdad66851b86c$__5af490811561125e5760009161122f575090565b600190825181526020809101920192019190611297565b60ff9061016e9160ff8354166116fc576101719081549081156116ea577f0000000000000000000000000000000000000000000000000000000000000000916113318382610f20565b6114c5575b50505050600190815482811461146a575061134f61118e565b90600083610170928354915b611408575b50505061138d827f0000000000000000000000000000000000000000000000000000000000000000610de6565b905483548091146113ba575b50506021811015610eb65760021b60a7015461016f5560ff19825416179055565b836113e47f000000000000000000000000000000000000000000000000000000000000000061196e565b915b8381106113f4575050611399565b61140085600085611990565b0184906113e6565b8554821015611465578015158061145c575b611453578561144a81946114398860006114348a5461170e565b611990565b6114438754610f65565b8755610f65565b9201919261135b565b50505050505050565b5080831461141a565b611360565b9050156114ac576000805261014c6020527f2f1ae789e51094ec473affec14fe3c88a47d4230101ae4544eefebff81efc6d75461016f55815460ff1916179055565b60405163042a2e7160e11b815260006004820152602490fd5b826114d7916114d2611742565b610f20565b61154d57506115057f000000000000000000000000000000000000000000000000000000000000000061196e565b60015460005261014c6020526040600020555b6001549060018201809211610e38578161153492600155610f0d565b9055600061016f55815460ff1916825538808080611336565b7f00000000000000000000000000000000000000000000000000000000000000009060005b8281106115cb5750506021811015610eb65760021b6002015460015460005261014c60205260406000205560025b608681106115b657506115b1610eda565b611518565b806115c5600480930182610ef6565b016115a0565b60218110159081610eb65780608601918254806115f9575b50610eb65760006115f49255610f65565b611572565b999792989394604097929796919651986116128a610d8d565b60a0368b376116208961196e565b956000955b8689168e811015611659578a610eb657878f986103fd8f91938f611652956103f091600290811b01610f55565b9650611625565b5092959c50929a97959998969a9390937f00000000000000000000000000000000000000000000000000000000000000009c5b808d168e8110156116b8578e9695949392918d6103fd6116ac938f610f9c565b9091929394955061168c565b5050979496939b50976116d091995099949199611281565b60018301808411610e38576116e49161189d565b386115e3565b6040516316a0341160e11b8152600490fd5b604051630d36aec160e01b8152600490fd5b80600154111561172a5760005261014c60205260406000205490565b6024906040519063042a2e7160e11b82526004820152fd5b6000546001600160a01b0316330361175657565b60405163118cdaa760e01b8152336004820152602490fd5b600019810191908211610e3857565b907f00000000000000000000000000000000000000000000000000000000000000006000198101908111917f000000000000000000000000000000000000000000000000000000000000000060005b6021811015610eb657806086019585875490610e3857858103611854575090600061184f9261184860406006611840825161180681610d8d565b60a036823760029588871b809701948554835260038801546020840152600488015490830152600587015460608301526080820152611281565b930190610ef6565b9755610f65565b6117cc565b61186e919294979650611887939550600285811b01610f55565b90919082549060031b91821b91600019901b1916179055565b0361188f5750565b6118998154610f65565b9055565b917f00000000000000000000000000000000000000000000000000000000000000009081831161195c577f0000000000000000000000000000000000000000000000000000000000000000916000198301928311935b60218110156119475780608601958587549061193257858103611854575090600061192d9261184860406006611840825161180681610d8d565b6118f3565b60246000634e487b7160e01b81526011600452fd5b60246000634e487b7160e01b81526032600452fd5b60405163d1459f7960e01b8152600490fd5b6021811015610eb657610172015490565b60ff1660ff8114610e385760010190565b9291808211611b03576119af6119a583610ea3565b90549060031b1c90565b906119d97f000000000000000000000000000000000000000000000000000000000000000061176e565b8214611a335750906119ff611a31939461186e611a04946119f985610f40565b50610f55565b610ea3565b611a1a611a158284549060031b1c90565b610f65565b825460001960039390931b92831b1916911b179055565b565b9190611a4560005460ff9060a01c1690565b15611aa05750611a9a611a76611a319495611a5e610f88565b90611a6885610f40565b5054825260208201526111df565b915b611a95611a8482610ea3565b8154906000199060031b1b19169055565b610ecc565b90611990565b9392611aaa610f74565b9260005b60ff811687811015611ade5790611ad9916103fd611ad26119a5846119f98a610f40565b9188610f9c565b611aae565b505092611afd90611a3195611af7611a9a949883610f9c565b52611281565b91611a78565b5050905056fea2646970667358221220a34d78a09c432af375505f56651e0e9f0fb24c10555ffcdc050440903cb42a6664736f6c63430008180033a2646970667358221220caf9dd60d3cc50b4a263d7b87702229abafa90d927932f500453c2c75f691ef964736f6c63430008180033",
  "libraries": {
    "PoseidonT3": "0x9A9f2CCfdE556A7E9Ff0848998Aa4a0CFD8863AE",
    "PoseidonT4": "0x68B1D87F95878fE05B998F19b66F4baba5De1aed",
    "PoseidonT5": "0x3Aa5ebB10DC797CAC828524e59A333d0A371443c",
    "PoseidonT6": "0xc6e7DF5E7b4f2A278906862b61205850344D4e7d"
  },
  "devdoc": {
    "kind": "dev",
    "methods": {
      "deploy(uint256,(uint256,uint256),(uint8,uint8,uint8,uint8),(uint256,uint256),address,address,address)": {
        "params": {
          "_coordinatorPubKey": "The coordinator's public key",
          "_duration": "The duration of the poll",
          "_maci": "The MACI contract interface reference",
          "_maxValues": "The max values for the poll",
          "_pollOwner": "The owner of the poll",
          "_topupCredit": "The TopupCredit contract",
          "_treeDepths": "The depths of the merkle trees"
        },
        "returns": {
          "pollAddr": "The deployed Poll contract"
        }
      }
    },
    "title": "PollFactory",
    "version": 1
  },
  "userdoc": {
    "kind": "user",
    "methods": {
      "MESSAGE_DATA_LENGTH()": {
        "notice": "the length of a MACI message"
      },
      "constructor": {
        "notice": "The PollFactory constructor"
      },
      "deploy(uint256,(uint256,uint256),(uint8,uint8,uint8,uint8),(uint256,uint256),address,address,address)": {
        "notice": "Deploy a new Poll contract and AccQueue contract for messages."
      }
    },
    "notice": "A factory contract which deploys Poll contracts. It allows the MACI contract size to stay within the limit set by EIP-170.",
    "version": 1
  },
  "storageLayout": {
    "storage": [],
    "types": null
  }
}