{
  "address": "0xc6e7DF5E7b4f2A278906862b61205850344D4e7d",
  "abi": [
    {
      "inputs": [
        {
          "internalType": "uint256[5]",
          "name": "input",
          "type": "uint256[5]"
        }
      ],
      "name": "poseidon",
      "outputs": [
        {
          "internalType": "uint256",
          "name": "",
          "type": "uint256"
        }
      ],
      "stateMutability": "pure",
      "type": "function"
    }
  ],
  "transactionHash": "0xc66eb1ec890e43ea84d6b0b00885d9636d9531440947ec84318c260f824057b4",
  "args": [],
  "numDeployments": 1,
  "solcInputHash": "d4edc97ed9e4f18935e5ac94c4119edc",
  "bytecode": "0x608080604052346100195760ce908161001f823930815050f35b600080fdfe60806004361015600e57600080fd5b600090813560e01c634937a25814602457600080fd5b60a0366003190112608057366023121560805760a0810181811067ffffffffffffffff8211176084576040529060a43660a4116080576020926004905b828210607257505050604051908152f35b813581529084019084016061565b5080fd5b634e487b7160e01b83526041600452602483fdfea2646970667358221220e33b84b53e22b6ad48af725c927958664d2fd4bd1a5c6044aa1d80f02398bbb564736f6c63430008180033",
  "devdoc": {
    "kind": "dev",
    "methods": {},
    "version": 1
  },
  "userdoc": {
    "kind": "user",
    "methods": {},
    "notice": "A library which provides functions for computing Pedersen hashes.",
    "version": 1
  },
  "storageLayout": {
    "storage": [],
    "types": null
  }
}