{
  "address": "0x68B1D87F95878fE05B998F19b66F4baba5De1aed",
  "abi": [
    {
      "inputs": [
        {
          "internalType": "uint256[3]",
          "name": "input",
          "type": "uint256[3]"
        }
      ],
      "name": "poseidon",
      "outputs": [
        {
          "internalType": "uint256",
          "name": "",
          "type": "uint256"
        }
      ],
      "stateMutability": "pure",
      "type": "function"
    }
  ],
  "transactionHash": "0x6c21bcebbb7eb358244153b1fd8ad5b8bcf63a8032e1c1ba7f4a815989afafdb",
  "args": [],
  "numDeployments": 1,
  "solcInputHash": "d4edc97ed9e4f18935e5ac94c4119edc",
  "bytecode": "0x608080604052346100195760ce908161001f823930815050f35b600080fdfe60806004361015600e57600080fd5b600090813560e01c6325cc70e814602457600080fd5b606036600319011260805736602312156080576060810181811067ffffffffffffffff821117608457604052906064366064116080576020926004905b828210607257505050604051908152f35b813581529084019084016061565b5080fd5b634e487b7160e01b83526041600452602483fdfea26469706673582212202b96c181665f4ae4148687fabe6e10a635ee312ec5033a5071e2fb25a76354dc64736f6c63430008180033",
  "devdoc": {
    "kind": "dev",
    "methods": {},
    "version": 1
  },
  "userdoc": {
    "kind": "user",
    "methods": {},
    "notice": "A library which provides functions for computing Pedersen hashes.",
    "version": 1
  },
  "storageLayout": {
    "storage": [],
    "types": null
  }
}