{
  "address": "0x9A9f2CCfdE556A7E9Ff0848998Aa4a0CFD8863AE",
  "abi": [
    {
      "inputs": [
        {
          "internalType": "uint256[2]",
          "name": "input",
          "type": "uint256[2]"
        }
      ],
      "name": "poseidon",
      "outputs": [
        {
          "internalType": "uint256",
          "name": "",
          "type": "uint256"
        }
      ],
      "stateMutability": "pure",
      "type": "function"
    }
  ],
  "transactionHash": "0x6d3cea2828d830433f53983de9b979aebeb7e22597d7911c8576459c53e3e2d6",
  "args": [],
  "numDeployments": 1,
  "solcInputHash": "d4edc97ed9e4f18935e5ac94c4119edc",
  "bytecode": "0x608080604052346100195760ce908161001f823930815050f35b600080fdfe60806004361015600e57600080fd5b600090813560e01c6329a5f2f614602457600080fd5b604036600319011260805736602312156080576040810181811067ffffffffffffffff821117608457604052906044366044116080576020926004905b828210607257505050604051908152f35b813581529084019084016061565b5080fd5b634e487b7160e01b83526041600452602483fdfea2646970667358221220e65f4b17fa2d7d4dc6aa0e82eb28ab8016239788a2bfe39f7b988cb59b6509ed64736f6c63430008180033",
  "devdoc": {
    "kind": "dev",
    "methods": {},
    "version": 1
  },
  "userdoc": {
    "kind": "user",
    "methods": {},
    "notice": "A library which provides functions for computing Pedersen hashes.",
    "version": 1
  },
  "storageLayout": {
    "storage": [],
    "types": null
  }
}