{
  "address": "0x3Aa5ebB10DC797CAC828524e59A333d0A371443c",
  "abi": [
    {
      "inputs": [
        {
          "internalType": "uint256[4]",
          "name": "input",
          "type": "uint256[4]"
        }
      ],
      "name": "poseidon",
      "outputs": [
        {
          "internalType": "uint256",
          "name": "",
          "type": "uint256"
        }
      ],
      "stateMutability": "pure",
      "type": "function"
    }
  ],
  "transactionHash": "0x0c693583a09d605c22092979737e294a6c69802f30f71ca12089a9cdc786da52",
  "args": [],
  "numDeployments": 1,
  "solcInputHash": "d4edc97ed9e4f18935e5ac94c4119edc",
  "bytecode": "0x608080604052346100195760ce908161001f823930815050f35b600080fdfe60806004361015600e57600080fd5b600090813560e01c63248f667714602457600080fd5b608036600319011260805736602312156080576080810181811067ffffffffffffffff821117608457604052906084366084116080576020926004905b828210607257505050604051908152f35b813581529084019084016061565b5080fd5b634e487b7160e01b83526041600452602483fdfea2646970667358221220447c29fe87096a442f9a0a2168b556e66fa96de4a76423d23bafd25d5cbb528064736f6c63430008180033",
  "devdoc": {
    "kind": "dev",
    "methods": {},
    "version": 1
  },
  "userdoc": {
    "kind": "user",
    "methods": {},
    "notice": "A library which provides functions for computing Pedersen hashes.",
    "version": 1
  },
  "storageLayout": {
    "storage": [],
    "types": null
  }
}