{
  "address": "0x322813Fd9A801c5507c9de605d63CEA4f2CE6c44",
  "abi": [
    {
      "inputs": [],
      "name": "MESSAGE_DATA_LENGTH",
      "outputs": [
        {
          "internalType": "uint8",
          "name": "",
          "type": "uint8"
        }
      ],
      "stateMutability": "view",
      "type": "function"
    },
    {
      "inputs": [
        {
          "internalType": "address",
          "name": "_verifier",
          "type": "address"
        },
        {
          "internalType": "address",
          "name": "_vkRegistry",
          "type": "address"
        },
        {
          "internalType": "address",
          "name": "_poll",
          "type": "address"
        },
        {
          "internalType": "address",
          "name": "_messageProcessor",
          "type": "address"
        },
        {
          "internalType": "address",
          "name": "_owner",
          "type": "address"
        },
        {
          "internalType": "enum DomainObjs.Mode",
          "name": "_mode",
          "type": "uint8"
        }
      ],
      "name": "deploy",
      "outputs": [
        {
          "internalType": "address",
          "name": "tallyAddr",
          "type": "address"
        }
      ],
      "stateMutability": "nonpayable",
      "type": "function"
    }
  ],
  "transactionHash": "0xe40376aabc2fbabbd698f9e38eb76ed8b85e32a0388df27b66e4040bef669556",
  "args": [],
  "numDeployments": 1,
  "solcInputHash": "d4edc97ed9e4f18935e5ac94c4119edc",
  "bytecode": "0x6080806040523461001657612327908161001c8239f35b600080fdfe60806040818152600436101561001457600080fd5b600091823560e01c908163431a717514610056575063683f3dc31461003857600080fd5b3461005257816003193601126100525760209051600a8152f35b5080fd5b919050346101a75760c03660031901126101a7576004356001600160a01b038181169182900361017b57602435938185168095036101a3576044359282841680940361019f576064359383851680950361019b57608435948486168096036101975760a43591600283101561019357612146988986019467ffffffffffffffff9a8787108c88111761017f57918795939160a09795936101ac883985526020850152898401526060830152608082015203019086f08015610171571692833b1561017b5782519163f2fde38b60e01b83526004830152848260248183885af180156101715761014a575b6020848451908152f35b811161015d576020935081523880610140565b634e487b7160e01b84526041600452602484fd5b83513d87823e3d90fd5b8480fd5b634e487b7160e01b8d52604160045260248dfd5b8980fd5b8880fd5b8780fd5b8680fd5b8580fd5b8280fdfe610120601f6200214638819003918201601f19168301916001600160401b03831184841017620001a55780849260a094604052833981010312620001a0576200004881620001bb565b906200005760208201620001bb565b6200006560408301620001bb565b9160806200007660608301620001bb565b910151936002851015620001a057331562000187576000549360018060a01b0380948180943360018060a01b03198a161760005560405198823391167f8be0079c531659141344cd1fd0a4f28419497f9722a3daafe3b4186f6b6457e0600080a3166080521660a0521660c0521660e052610100918252611f759182620001d183396080518281816107ea01528181610dd80152611183015260a0518281816106e7015281816110890152611677015260c0518281816101fd01528181610514015281816105ed0152610e7c015260e05182818161033901528181610ee5015261159901525181818161042c015281816106bb01528181610d3c01528181610e230152818161105d01526116e20152f35b604051631e4fbdf760e01b815260006004820152602490fd5b600080fd5b634e487b7160e01b600052604160045260246000fd5b51906001600160a01b0382168203620001a05756fe608080604052600436101561001357600080fd5b60003560e01c90816310bc5f51146116a65750806313fb89321461166157806316425eeb1461156e57806323e3feb114610e49578063295a521214610e075780632b7ac3f314610dc25780632d966bf414610d265780633dfb88b214610c1657806358bfc37914610b8c5780635bb9399514610b6b5780636175029314610b4d57806362a361bb14610af6578063683f3dc314610ada5780636b148b6014610abe578063715018a614610a655780637485dba1146105c35780638da5cb5b1461059a5780639cfced9714610543578063a1175279146104fe578063a21fb51114610409578063afb93bd3146103eb578063b03698f2146103c7578063bea140b314610368578063d0380fe214610323578063d13181b814610305578063e3ff7606146101dd5763f2fde38b1461014857600080fd5b346101d85760203660031901126101d8576004356001600160a01b03818116918290036101d857610177611dc7565b81156101bf57600054826bffffffffffffffffffffffff60a01b821617600055167f8be0079c531659141344cd1fd0a4f28419497f9722a3daafe3b4186f6b6457e0600080a3005b604051631e4fbdf760e01b815260006004820152602490fd5b600080fd5b346101d85760003660031901126101d85760405163ac98e5df60e01b81527f00000000000000000000000000000000000000000000000000000000000000006001600160a01b0316608082600481845afa9081156102c2576004926000926102ce575b50604090815193848092634f367f0f60e01b82525afa9081156102c25760209260009261028c575b506102829061027c60ff600254921661190f565b9061197e565b1015604051908152f35b6102829192506102b39060403d6040116102bb575b6102ab8183611871565b810190611991565b509190610268565b503d6102a1565b6040513d6000823e3d90fd5b60409192506102f49060803d6080116102fe575b6102ec8183611871565b8101906118d1565b5050509190610240565b503d6102e2565b346101d85760003660031901126101d8576020600354604051908152f35b346101d85760003660031901126101d8576040517f00000000000000000000000000000000000000000000000000000000000000006001600160a01b03168152602090f35b346101d85760603660031901126101d85736602312156101d85760405161038e81611855565b6064813682116101d8576020926004905b8382106103b857846103b084611d60565b604051908152f35b8135815290840190840161039f565b346101d85760603660031901126101d85760206103b0604435602435600435611cdc565b346101d85760003660031901126101d8576020600254604051908152f35b346101d85761042961041a366117ae565b96600098949396919592611e04565b917f00000000000000000000000000000000000000000000000000000000000000009460028610156104e8576020958061049e5750509061047f61048f94926040519461047586611855565b6060368737611a54565b8352848301526040820152611d60565b600154145b6040519015158152f35b6001919550146104b1575b505050610494565b6104dc93506104d190604051936104c78561181d565b6040368637611a54565b825283820152611a72565b600154148280806104a9565b634e487b7160e01b600052602160045260246000fd5b346101d85760003660031901126101d8576040517f00000000000000000000000000000000000000000000000000000000000000006001600160a01b03168152602090f35b346101d85760a03660031901126101d85736602312156101d85760405161056981611839565b60a4813682116101d8576020926004905b83821061058b57846103b084611c75565b8135815290840190840161057a565b346101d85760003660031901126101d8576000546040516001600160a01b039091168152602090f35b346101d8576101803660031901126101d85736610104116101d85760405163ac98e5df60e01b81527f00000000000000000000000000000000000000000000000000000000000000006001600160a01b0316608082600481845afa9081156102c257600092600092610a38575b509060606004926040519384809263bc14ee2b60e01b82525afa9182156102c2576000926109cc575b5060405163194b1db960e21b815291602090839060049082906001600160a01b03165afa9182156102c25760009261098e575b506040516310b37e4d60e01b815260ff928316600482015292821660248401521660448201526106df606482017f00000000000000000000000000000000000000000000000000000000000000006117a1565b6000816084817f00000000000000000000000000000000000000000000000000000000000000006001600160a01b03165afa9081156102c257600091610882575b5061073961016435610144356101243561010435611b08565b6040516308adcb2560e21b81529182906101006004808401376101406101048301526080610324830191602081518051610144870152015161016485015261078a6020820151610184860190611c55565b61079d6040820151610204860190611c55565b6107b06060820151610284860190611c55565b0151906101e061030484015281518091526020610344840192019060005b81811061085d57505050610124820192909252602091819003817f00000000000000000000000000000000000000000000000000000000000000006001600160a01b03165afa80156102c257602091600091610830575b506040519015158152f35b6108509150823d8411610856575b6108488183611871565b8101906118ab565b82610825565b503d61083e565b82518051855260209081015181860152879550604090940193909201916001016107ce565b90503d806000833e6108948183611871565b81016020828203126101d857815167ffffffffffffffff928382116101d85701916101e0838303126101d857604051926108cd84611839565b6108d78382611b87565b84526108e68360408301611bf4565b60208501526108f88360c08301611bf4565b604085015261090b836101408301611bf4565b60608501526101c08101519182116101d8570181601f820112156101d857805161093481611893565b926109426040519485611871565b81845260208085019260061b840101928184116101d857602001915b8383106109745750505050608082015281610720565b60206040916109838486611b87565b81520192019161095e565b91506020823d6020116109c4575b816109a960209383611871565b810103126101d85760ff6109bd81936118c3565b925061068c565b3d915061099c565b91506060823d606011610a30575b816109e760609383611871565b810103126101d8578151916001600160a01b03831683036101d85760208101516001600160a01b038116036101d857604001516001600160a01b038116036101d8576020610659565b3d91506109da565b6060935060049250610a589060803d6080116102fe576102ec8183611871565b9592915050939250610630565b346101d85760003660031901126101d857610a7e611dc7565b600080546001600160a01b0319811682556001600160a01b03167f8be0079c531659141344cd1fd0a4f28419497f9722a3daafe3b4186f6b6457e08280a3005b346101d85760206103b0610ad136611783565b92919091611b08565b346101d85760003660031901126101d8576020604051600a8152f35b346101d85760403660031901126101d85736602312156101d857604051610b1c8161181d565b6044813682116101d8576020926004905b838210610b3e57846103b084611a72565b81358152908401908401610b2d565b346101d85760003660031901126101d8576020600154604051908152f35b346101d85760403660031901126101d85760206103b0602435600435611a54565b346101d8576020806003193601126101d85760043567ffffffffffffffff81116101d857366023820112156101d857806004013590610bca82611893565b91610bd86040519384611871565b8083526024602084019160051b830101913683116101d857602401905b828210610c075760206103b0856119a7565b81358152908401908401610bf5565b346101d85760803660031901126101d85736602312156101d8576040516080810181811067ffffffffffffffff821117610d10576040526084813682116101d8576004905b828210610d005760405163248f667760e01b8152600085600483015b60048310610ce95783602081608481733Aa5ebB10DC797CAC828524e59A333d0A371443c5af480156102c257600090610cb6575b602090604051908152f35b506020813d602011610ce1575b81610cd060209383611871565b810103126101d85760209051610cab565b3d9150610cc3565b600190825181526020809101920192019190610c77565b8135815260209182019101610c5b565b634e487b7160e01b600052604160045260246000fd5b346101d857610d34366117ae565b9496939190917f000000000000000000000000000000000000000000000000000000000000000060028110156104e857610db057602097610da497610d9a96610d7c94611e04565b9060405194610d8a86611855565b6060368737855286850152611a54565b6040820152611d60565b60015414604051908152f35b604051630280e1e560e61b8152600490fd5b346101d85760003660031901126101d8576040517f00000000000000000000000000000000000000000000000000000000000000006001600160a01b03168152602090f35b346101d85760003660031901126101d8576020604051610e47817f00000000000000000000000000000000000000000000000000000000000000006117a1565bf35b346101d8576101203660031901126101d85736610124116101d857610e6c611dc7565b60408051634909229f60e01b81527f00000000000000000000000000000000000000000000000000000000000000006001600160a01b03169181600481855afa9081156102c25760009060009261154c575b50420342811161153657111561152457610ed6611dc7565b6040516321d8f43160e21b81527f00000000000000000000000000000000000000000000000000000000000000006001600160a01b031690602081600481855afa9081156102c257600091611505575b50156114f35760035415611490575b5060405163ac98e5df60e01b80825290608081600481865afa9081156102c257610f6b9160ff9160009161146e575b501661190f565b90600254916001610f7c828561197e565b930160025560408051634f367f0f60e01b8152929083600481885afa9283156102c25760009361144c575b508284101561143a57604051908152608081600481885afa9081156102c257600495600091600093611410575b506060906040519788809263bc14ee2b60e01b82525afa9586156102c2576000966113a4575b5060405163194b1db960e21b815295602090879060049082906001600160a01b03165afa9586156102c257600096611362575b506040516310b37e4d60e01b815260ff9687166004820152908616602482015294166044850152611081606485017f00000000000000000000000000000000000000000000000000000000000000006117a1565b6000846084817f00000000000000000000000000000000000000000000000000000000000000006001600160a01b03165afa9283156102c257600093611220575b6110d193945060043592611b08565b6040516308adcb2560e21b815291829061010060246004840137610140610104830152608061032483019160208151805161014487015201516101648501526111236020820151610184860190611c55565b6111366040820151610204860190611c55565b6111496060820151610284860190611c55565b0151906101e061030484015281518091526020610344840192019060005b8181106111fb57505050610124820192909252602091819003817f00000000000000000000000000000000000000000000000000000000000000006001600160a01b03165afa9081156102c2576000916111dc575b50156111ca57600435600155005b6040516341acf34d60e01b8152600490fd5b6111f5915060203d602011610856576108488183611871565b816111bc565b8251805185526020908101518186015287955060409094019390920191600101611167565b92503d806000863e6112328186611871565b60208582810103126101d857845167ffffffffffffffff908181116101d8578601916101e08382890103126101d8576040519261126e84611839565b61127a82890182611b87565b845261128b82890160408301611bf4565b602085015261129f82890160c08301611bf4565b60408501526112b48289016101408301611bf4565b60608501526101c08101519283116101d857818801601f8483010112156101d85782810151916112e383611893565b936112f16040519586611871565b8385526020850192828b0160208660061b8484010101116101d85790602081830101935b60208660061b8385010101851061133f575050505050506110d194955060808201529250836110c2565b90604060208094936113538f880189611b87565b81520195019490919250611315565b919095506020823d60201161139c575b8161137f60209383611871565b810103126101d85760ff61139381936118c3565b9691925061102d565b3d9150611372565b95506060863d606011611408575b816113bf60609383611871565b810103126101d8578551956001600160a01b03871687036101d85760208101516001600160a01b038116036101d857604001516001600160a01b038116036101d8576020610ffa565b3d91506113b2565b61142e9193506060925060803d6080116102fe576102ec8183611871565b9492939150610fd49050565b60405163b3f8c18960e01b8152600490fd5b61146691935060403d6040116102bb576102ab8183611871565b509185610fa7565b611487915060803d6080116102fe576102ec8183611871565b50505085610f64565b602060049160405192838092631a26303760e31b82525afa9081156102c2576000916114c1575b5060035581610f35565b90506020813d6020116114eb575b816114dc60209383611871565b810103126101d85751826114b7565b3d91506114cf565b60405163f13e1b8560e01b8152600490fd5b61151e915060203d602011610856576108488183611871565b83610f26565b604051635c3017c560e11b8152600490fd5b634e487b7160e01b600052601160045260246000fd5b9050611567915060403d6040116102bb576102ab8183611871565b9083610ebe565b346101d85760003660031901126101d857611587611dc7565b6040516321d8f43160e21b81526020907f00000000000000000000000000000000000000000000000000000000000000006001600160a01b0316908281600481855afa9081156102c257600091611644575b50156114f357600354156115e957005b8160049160405192838092631a26303760e31b82525afa9182156102c257600092611616575b5050600355005b90809250813d831161163d575b61162d8183611871565b810103126101d85751818061160f565b503d611623565b61165b9150833d8511610856576108488183611871565b836115d9565b346101d85760003660031901126101d8576040517f00000000000000000000000000000000000000000000000000000000000000006001600160a01b03168152602090f35b346101d8576116b436611783565b928360406000949394966116c781611855565b60603682378581526116d98585611a54565b602082015201527f00000000000000000000000000000000000000000000000000000000000000009460028610156104e8576020958061174557505061048f9391611737916040519461172b86611855565b60603687378552611a54565b848301526040820152611d60565b60019195501461175757505050610494565b6104dc93509061177a916040519361176e8561181d565b60403686378452611a54565b83820152611a72565b60809060031901126101d85760043590602435906044359060643590565b9060028210156104e85752565b9060e06003198301126101d857600435916024359160443567ffffffffffffffff928382116101d857806023830112156101d85781600401359384116101d85760248460051b830101116101d85760240191906064359060843560ff811681036101d8579060a4359060c43590565b6040810190811067ffffffffffffffff821117610d1057604052565b60a0810190811067ffffffffffffffff821117610d1057604052565b6060810190811067ffffffffffffffff821117610d1057604052565b90601f8019910116810190811067ffffffffffffffff821117610d1057604052565b67ffffffffffffffff8111610d105760051b60200190565b908160209103126101d8575180151581036101d85790565b519060ff821682036101d857565b91908260809103126101d8576118e6826118c3565b916118f3602082016118c3565b9161190c6060611905604085016118c3565b93016118c3565b90565b801561197857600190602081108216604e82108316176119705781906005925b80821161194757505081600019048111611536570290565b90928060001904811161153657818416611967575b800292811c9061192f565b8092029161195c565b905060050a90565b50600190565b8181029291811591840414171561153657565b91908260409103126101d8576020825192015190565b604051815160209283019082908482019060005b86828210611a3d575050506119d9925003601f198101835282611871565b604051908051908360005b838110611a2b5750505090806000928101838152039060025afa156102c2577f30644e72e131a029b85045b68181585d2833e84879b9709143e1f593f00000016000510690565b818184010151818601520184906119e4565b8551845294850194869450909201916001016119bb565b61190c9160405191611a658361181d565b6040368437825260208201525b6040516314d2f97b60e11b815290600090600483015b60028310611af157505050602081604481739A9f2CCfdE556A7E9Ff0848998Aa4a0CFD8863AE5af49081156102c257600091611ac2575090565b90506020813d602011611ae9575b81611add60209383611871565b810103126101d8575190565b3d9150611ad0565b600190825181526020809101920192019190611a88565b90611b139291611cdc565b60405190611b2082611839565b60048252602082016080368237825115611b715752600354815160011015611b71576040820152600154815160021015611b71576060820152805160031015611b715761190c9160808201526119a7565b634e487b7160e01b600052603260045260246000fd5b91908260409103126101d857604051611b9f8161181d565b6020808294805184520151910152565b9080601f830112156101d85760405191611bc88361181d565b8290604081019283116101d857905b828210611be45750505090565b8151815260209182019101611bd7565b91906080838203126101d8576020611c2860405192611c128461181d565b60408496611c208382611baf565b865201611baf565b910152565b6000915b60028310611c3e57505050565b600190825181526020809101920192019190611c31565b9060406020611c7393611c69848251611c2d565b0151910190611c2d565b565b604051630926f44b60e31b815290600090600483015b60058310611cc55750505060208160a48173c6e7DF5E7b4f2A278906862b61205850344D4e7d5af49081156102c257600091611ac2575090565b600190825181526020809101920192019190611c8b565b9190660400000000000080841015611d4e5780821015611d3c57821015611d2a578115611d1457049060321b81018091116115365790565b634e487b7160e01b600052601260045260246000fd5b60405163cdc3c16b60e01b8152600490fd5b6040516334dd29a960e21b8152600490fd5b604051631805864f60e21b8152600490fd5b6040516304b98e1d60e31b815290600090600483015b60038310611db0575050506020816064817368B1D87F95878fE05B998F19b66F4baba5De1aed5af49081156102c257600091611ac2575090565b600190825181526020809101920192019190611d76565b6000546001600160a01b03163303611ddb57565b60405163118cdaa760e01b8152336004820152602490fd5b906005811015611b715760051b0190565b9291949390936005850660405194611e1b86611839565b60a03687376000925b60ff821660ff85161015611f355760005b600560ff82161015611f0a5760ff81168403611e6e57808a611e5b60ff8094168b611df3565b525b1660ff811461153657600101611e35565b8360ff821611600014611f045760001960ff82160160ff811161153657905b8660ff87161015611b7157611fe08660051b16880135601e19893603018112156101d857808901359067ffffffffffffffff82116101d8576020918060051b360383838d0101136101d85760ff85161015611b7157611fe060ff9460051b16908a01010135611efe8383168b611df3565b52611e5d565b80611e8d565b509690929750600591500494600586069060ff806001611f2989611c75565b9a011693919050611e24565b965050505050505056fea2646970667358221220ccfedeeaee5c6d9843a3e92a88411faca88cddea9d782ce298b4f715eda3d47e64736f6c63430008180033a2646970667358221220f4eec47fe9ac139f08b7ea95897b989ef3f121fc5980577823a4fa2ff4bd70ae64736f6c63430008180033",
  "deployedBytecode": "0x60806040818152600436101561001457600080fd5b600091823560e01c908163431a717514610056575063683f3dc31461003857600080fd5b3461005257816003193601126100525760209051600a8152f35b5080fd5b919050346101a75760c03660031901126101a7576004356001600160a01b038181169182900361017b57602435938185168095036101a3576044359282841680940361019f576064359383851680950361019b57608435948486168096036101975760a43591600283101561019357612146988986019467ffffffffffffffff9a8787108c88111761017f57918795939160a09795936101ac883985526020850152898401526060830152608082015203019086f08015610171571692833b1561017b5782519163f2fde38b60e01b83526004830152848260248183885af180156101715761014a575b6020848451908152f35b811161015d576020935081523880610140565b634e487b7160e01b84526041600452602484fd5b83513d87823e3d90fd5b8480fd5b634e487b7160e01b8d52604160045260248dfd5b8980fd5b8880fd5b8780fd5b8680fd5b8580fd5b8280fdfe610120601f6200214638819003918201601f19168301916001600160401b03831184841017620001a55780849260a094604052833981010312620001a0576200004881620001bb565b906200005760208201620001bb565b6200006560408301620001bb565b9160806200007660608301620001bb565b910151936002851015620001a057331562000187576000549360018060a01b0380948180943360018060a01b03198a161760005560405198823391167f8be0079c531659141344cd1fd0a4f28419497f9722a3daafe3b4186f6b6457e0600080a3166080521660a0521660c0521660e052610100918252611f759182620001d183396080518281816107ea01528181610dd80152611183015260a0518281816106e7015281816110890152611677015260c0518281816101fd01528181610514015281816105ed0152610e7c015260e05182818161033901528181610ee5015261159901525181818161042c015281816106bb01528181610d3c01528181610e230152818161105d01526116e20152f35b604051631e4fbdf760e01b815260006004820152602490fd5b600080fd5b634e487b7160e01b600052604160045260246000fd5b51906001600160a01b0382168203620001a05756fe608080604052600436101561001357600080fd5b60003560e01c90816310bc5f51146116a65750806313fb89321461166157806316425eeb1461156e57806323e3feb114610e49578063295a521214610e075780632b7ac3f314610dc25780632d966bf414610d265780633dfb88b214610c1657806358bfc37914610b8c5780635bb9399514610b6b5780636175029314610b4d57806362a361bb14610af6578063683f3dc314610ada5780636b148b6014610abe578063715018a614610a655780637485dba1146105c35780638da5cb5b1461059a5780639cfced9714610543578063a1175279146104fe578063a21fb51114610409578063afb93bd3146103eb578063b03698f2146103c7578063bea140b314610368578063d0380fe214610323578063d13181b814610305578063e3ff7606146101dd5763f2fde38b1461014857600080fd5b346101d85760203660031901126101d8576004356001600160a01b03818116918290036101d857610177611dc7565b81156101bf57600054826bffffffffffffffffffffffff60a01b821617600055167f8be0079c531659141344cd1fd0a4f28419497f9722a3daafe3b4186f6b6457e0600080a3005b604051631e4fbdf760e01b815260006004820152602490fd5b600080fd5b346101d85760003660031901126101d85760405163ac98e5df60e01b81527f00000000000000000000000000000000000000000000000000000000000000006001600160a01b0316608082600481845afa9081156102c2576004926000926102ce575b50604090815193848092634f367f0f60e01b82525afa9081156102c25760209260009261028c575b506102829061027c60ff600254921661190f565b9061197e565b1015604051908152f35b6102829192506102b39060403d6040116102bb575b6102ab8183611871565b810190611991565b509190610268565b503d6102a1565b6040513d6000823e3d90fd5b60409192506102f49060803d6080116102fe575b6102ec8183611871565b8101906118d1565b5050509190610240565b503d6102e2565b346101d85760003660031901126101d8576020600354604051908152f35b346101d85760003660031901126101d8576040517f00000000000000000000000000000000000000000000000000000000000000006001600160a01b03168152602090f35b346101d85760603660031901126101d85736602312156101d85760405161038e81611855565b6064813682116101d8576020926004905b8382106103b857846103b084611d60565b604051908152f35b8135815290840190840161039f565b346101d85760603660031901126101d85760206103b0604435602435600435611cdc565b346101d85760003660031901126101d8576020600254604051908152f35b346101d85761042961041a366117ae565b96600098949396919592611e04565b917f00000000000000000000000000000000000000000000000000000000000000009460028610156104e8576020958061049e5750509061047f61048f94926040519461047586611855565b6060368737611a54565b8352848301526040820152611d60565b600154145b6040519015158152f35b6001919550146104b1575b505050610494565b6104dc93506104d190604051936104c78561181d565b6040368637611a54565b825283820152611a72565b600154148280806104a9565b634e487b7160e01b600052602160045260246000fd5b346101d85760003660031901126101d8576040517f00000000000000000000000000000000000000000000000000000000000000006001600160a01b03168152602090f35b346101d85760a03660031901126101d85736602312156101d85760405161056981611839565b60a4813682116101d8576020926004905b83821061058b57846103b084611c75565b8135815290840190840161057a565b346101d85760003660031901126101d8576000546040516001600160a01b039091168152602090f35b346101d8576101803660031901126101d85736610104116101d85760405163ac98e5df60e01b81527f00000000000000000000000000000000000000000000000000000000000000006001600160a01b0316608082600481845afa9081156102c257600092600092610a38575b509060606004926040519384809263bc14ee2b60e01b82525afa9182156102c2576000926109cc575b5060405163194b1db960e21b815291602090839060049082906001600160a01b03165afa9182156102c25760009261098e575b506040516310b37e4d60e01b815260ff928316600482015292821660248401521660448201526106df606482017f00000000000000000000000000000000000000000000000000000000000000006117a1565b6000816084817f00000000000000000000000000000000000000000000000000000000000000006001600160a01b03165afa9081156102c257600091610882575b5061073961016435610144356101243561010435611b08565b6040516308adcb2560e21b81529182906101006004808401376101406101048301526080610324830191602081518051610144870152015161016485015261078a6020820151610184860190611c55565b61079d6040820151610204860190611c55565b6107b06060820151610284860190611c55565b0151906101e061030484015281518091526020610344840192019060005b81811061085d57505050610124820192909252602091819003817f00000000000000000000000000000000000000000000000000000000000000006001600160a01b03165afa80156102c257602091600091610830575b506040519015158152f35b6108509150823d8411610856575b6108488183611871565b8101906118ab565b82610825565b503d61083e565b82518051855260209081015181860152879550604090940193909201916001016107ce565b90503d806000833e6108948183611871565b81016020828203126101d857815167ffffffffffffffff928382116101d85701916101e0838303126101d857604051926108cd84611839565b6108d78382611b87565b84526108e68360408301611bf4565b60208501526108f88360c08301611bf4565b604085015261090b836101408301611bf4565b60608501526101c08101519182116101d8570181601f820112156101d857805161093481611893565b926109426040519485611871565b81845260208085019260061b840101928184116101d857602001915b8383106109745750505050608082015281610720565b60206040916109838486611b87565b81520192019161095e565b91506020823d6020116109c4575b816109a960209383611871565b810103126101d85760ff6109bd81936118c3565b925061068c565b3d915061099c565b91506060823d606011610a30575b816109e760609383611871565b810103126101d8578151916001600160a01b03831683036101d85760208101516001600160a01b038116036101d857604001516001600160a01b038116036101d8576020610659565b3d91506109da565b6060935060049250610a589060803d6080116102fe576102ec8183611871565b9592915050939250610630565b346101d85760003660031901126101d857610a7e611dc7565b600080546001600160a01b0319811682556001600160a01b03167f8be0079c531659141344cd1fd0a4f28419497f9722a3daafe3b4186f6b6457e08280a3005b346101d85760206103b0610ad136611783565b92919091611b08565b346101d85760003660031901126101d8576020604051600a8152f35b346101d85760403660031901126101d85736602312156101d857604051610b1c8161181d565b6044813682116101d8576020926004905b838210610b3e57846103b084611a72565b81358152908401908401610b2d565b346101d85760003660031901126101d8576020600154604051908152f35b346101d85760403660031901126101d85760206103b0602435600435611a54565b346101d8576020806003193601126101d85760043567ffffffffffffffff81116101d857366023820112156101d857806004013590610bca82611893565b91610bd86040519384611871565b8083526024602084019160051b830101913683116101d857602401905b828210610c075760206103b0856119a7565b81358152908401908401610bf5565b346101d85760803660031901126101d85736602312156101d8576040516080810181811067ffffffffffffffff821117610d10576040526084813682116101d8576004905b828210610d005760405163248f667760e01b8152600085600483015b60048310610ce9578360208160848173__$e61c65d9562aef5fa6ab22c0f787cf1e30$__5af480156102c257600090610cb6575b602090604051908152f35b506020813d602011610ce1575b81610cd060209383611871565b810103126101d85760209051610cab565b3d9150610cc3565b600190825181526020809101920192019190610c77565b8135815260209182019101610c5b565b634e487b7160e01b600052604160045260246000fd5b346101d857610d34366117ae565b9496939190917f000000000000000000000000000000000000000000000000000000000000000060028110156104e857610db057602097610da497610d9a96610d7c94611e04565b9060405194610d8a86611855565b6060368737855286850152611a54565b6040820152611d60565b60015414604051908152f35b604051630280e1e560e61b8152600490fd5b346101d85760003660031901126101d8576040517f00000000000000000000000000000000000000000000000000000000000000006001600160a01b03168152602090f35b346101d85760003660031901126101d8576020604051610e47817f00000000000000000000000000000000000000000000000000000000000000006117a1565bf35b346101d8576101203660031901126101d85736610124116101d857610e6c611dc7565b60408051634909229f60e01b81527f00000000000000000000000000000000000000000000000000000000000000006001600160a01b03169181600481855afa9081156102c25760009060009261154c575b50420342811161153657111561152457610ed6611dc7565b6040516321d8f43160e21b81527f00000000000000000000000000000000000000000000000000000000000000006001600160a01b031690602081600481855afa9081156102c257600091611505575b50156114f35760035415611490575b5060405163ac98e5df60e01b80825290608081600481865afa9081156102c257610f6b9160ff9160009161146e575b501661190f565b90600254916001610f7c828561197e565b930160025560408051634f367f0f60e01b8152929083600481885afa9283156102c25760009361144c575b508284101561143a57604051908152608081600481885afa9081156102c257600495600091600093611410575b506060906040519788809263bc14ee2b60e01b82525afa9586156102c2576000966113a4575b5060405163194b1db960e21b815295602090879060049082906001600160a01b03165afa9586156102c257600096611362575b506040516310b37e4d60e01b815260ff9687166004820152908616602482015294166044850152611081606485017f00000000000000000000000000000000000000000000000000000000000000006117a1565b6000846084817f00000000000000000000000000000000000000000000000000000000000000006001600160a01b03165afa9283156102c257600093611220575b6110d193945060043592611b08565b6040516308adcb2560e21b815291829061010060246004840137610140610104830152608061032483019160208151805161014487015201516101648501526111236020820151610184860190611c55565b6111366040820151610204860190611c55565b6111496060820151610284860190611c55565b0151906101e061030484015281518091526020610344840192019060005b8181106111fb57505050610124820192909252602091819003817f00000000000000000000000000000000000000000000000000000000000000006001600160a01b03165afa9081156102c2576000916111dc575b50156111ca57600435600155005b6040516341acf34d60e01b8152600490fd5b6111f5915060203d602011610856576108488183611871565b816111bc565b8251805185526020908101518186015287955060409094019390920191600101611167565b92503d806000863e6112328186611871565b60208582810103126101d857845167ffffffffffffffff908181116101d8578601916101e08382890103126101d8576040519261126e84611839565b61127a82890182611b87565b845261128b82890160408301611bf4565b602085015261129f82890160c08301611bf4565b60408501526112b48289016101408301611bf4565b60608501526101c08101519283116101d857818801601f8483010112156101d85782810151916112e383611893565b936112f16040519586611871565b8385526020850192828b0160208660061b8484010101116101d85790602081830101935b60208660061b8385010101851061133f575050505050506110d194955060808201529250836110c2565b90604060208094936113538f880189611b87565b81520195019490919250611315565b919095506020823d60201161139c575b8161137f60209383611871565b810103126101d85760ff61139381936118c3565b9691925061102d565b3d9150611372565b95506060863d606011611408575b816113bf60609383611871565b810103126101d8578551956001600160a01b03871687036101d85760208101516001600160a01b038116036101d857604001516001600160a01b038116036101d8576020610ffa565b3d91506113b2565b61142e9193506060925060803d6080116102fe576102ec8183611871565b9492939150610fd49050565b60405163b3f8c18960e01b8152600490fd5b61146691935060403d6040116102bb576102ab8183611871565b509185610fa7565b611487915060803d6080116102fe576102ec8183611871565b50505085610f64565b602060049160405192838092631a26303760e31b82525afa9081156102c2576000916114c1575b5060035581610f35565b90506020813d6020116114eb575b816114dc60209383611871565b810103126101d85751826114b7565b3d91506114cf565b60405163f13e1b8560e01b8152600490fd5b61151e915060203d602011610856576108488183611871565b83610f26565b604051635c3017c560e11b8152600490fd5b634e487b7160e01b600052601160045260246000fd5b9050611567915060403d6040116102bb576102ab8183611871565b9083610ebe565b346101d85760003660031901126101d857611587611dc7565b6040516321d8f43160e21b81526020907f00000000000000000000000000000000000000000000000000000000000000006001600160a01b0316908281600481855afa9081156102c257600091611644575b50156114f357600354156115e957005b8160049160405192838092631a26303760e31b82525afa9182156102c257600092611616575b5050600355005b90809250813d831161163d575b61162d8183611871565b810103126101d85751818061160f565b503d611623565b61165b9150833d8511610856576108488183611871565b836115d9565b346101d85760003660031901126101d8576040517f00000000000000000000000000000000000000000000000000000000000000006001600160a01b03168152602090f35b346101d8576116b436611783565b928360406000949394966116c781611855565b60603682378581526116d98585611a54565b602082015201527f00000000000000000000000000000000000000000000000000000000000000009460028610156104e8576020958061174557505061048f9391611737916040519461172b86611855565b60603687378552611a54565b848301526040820152611d60565b60019195501461175757505050610494565b6104dc93509061177a916040519361176e8561181d565b60403686378452611a54565b83820152611a72565b60809060031901126101d85760043590602435906044359060643590565b9060028210156104e85752565b9060e06003198301126101d857600435916024359160443567ffffffffffffffff928382116101d857806023830112156101d85781600401359384116101d85760248460051b830101116101d85760240191906064359060843560ff811681036101d8579060a4359060c43590565b6040810190811067ffffffffffffffff821117610d1057604052565b60a0810190811067ffffffffffffffff821117610d1057604052565b6060810190811067ffffffffffffffff821117610d1057604052565b90601f8019910116810190811067ffffffffffffffff821117610d1057604052565b67ffffffffffffffff8111610d105760051b60200190565b908160209103126101d8575180151581036101d85790565b519060ff821682036101d857565b91908260809103126101d8576118e6826118c3565b916118f3602082016118c3565b9161190c6060611905604085016118c3565b93016118c3565b90565b801561197857600190602081108216604e82108316176119705781906005925b80821161194757505081600019048111611536570290565b90928060001904811161153657818416611967575b800292811c9061192f565b8092029161195c565b905060050a90565b50600190565b8181029291811591840414171561153657565b91908260409103126101d8576020825192015190565b604051815160209283019082908482019060005b86828210611a3d575050506119d9925003601f198101835282611871565b604051908051908360005b838110611a2b5750505090806000928101838152039060025afa156102c2577f30644e72e131a029b85045b68181585d2833e84879b9709143e1f593f00000016000510690565b818184010151818601520184906119e4565b8551845294850194869450909201916001016119bb565b61190c9160405191611a658361181d565b6040368437825260208201525b6040516314d2f97b60e11b815290600090600483015b60028310611af15750505060208160448173__$1540826e134b1b69b7091c82576ee3aadd$__5af49081156102c257600091611ac2575090565b90506020813d602011611ae9575b81611add60209383611871565b810103126101d8575190565b3d9150611ad0565b600190825181526020809101920192019190611a88565b90611b139291611cdc565b60405190611b2082611839565b60048252602082016080368237825115611b715752600354815160011015611b71576040820152600154815160021015611b71576060820152805160031015611b715761190c9160808201526119a7565b634e487b7160e01b600052603260045260246000fd5b91908260409103126101d857604051611b9f8161181d565b6020808294805184520151910152565b9080601f830112156101d85760405191611bc88361181d565b8290604081019283116101d857905b828210611be45750505090565b8151815260209182019101611bd7565b91906080838203126101d8576020611c2860405192611c128461181d565b60408496611c208382611baf565b865201611baf565b910152565b6000915b60028310611c3e57505050565b600190825181526020809101920192019190611c31565b9060406020611c7393611c69848251611c2d565b0151910190611c2d565b565b604051630926f44b60e31b815290600090600483015b60058310611cc55750505060208160a48173__$46fbdf6658faf65265971bdad66851b86c$__5af49081156102c257600091611ac2575090565b600190825181526020809101920192019190611c8b565b9190660400000000000080841015611d4e5780821015611d3c57821015611d2a578115611d1457049060321b81018091116115365790565b634e487b7160e01b600052601260045260246000fd5b60405163cdc3c16b60e01b8152600490fd5b6040516334dd29a960e21b8152600490fd5b604051631805864f60e21b8152600490fd5b6040516304b98e1d60e31b815290600090600483015b60038310611db05750505060208160648173__$fa059fb1da6d850ca47ea49359bfe89f78$__5af49081156102c257600091611ac2575090565b600190825181526020809101920192019190611d76565b6000546001600160a01b03163303611ddb57565b60405163118cdaa760e01b8152336004820152602490fd5b906005811015611b715760051b0190565b9291949390936005850660405194611e1b86611839565b60a03687376000925b60ff821660ff85161015611f355760005b600560ff82161015611f0a5760ff81168403611e6e57808a611e5b60ff8094168b611df3565b525b1660ff811461153657600101611e35565b8360ff821611600014611f045760001960ff82160160ff811161153657905b8660ff87161015611b7157611fe08660051b16880135601e19893603018112156101d857808901359067ffffffffffffffff82116101d8576020918060051b360383838d0101136101d85760ff85161015611b7157611fe060ff9460051b16908a01010135611efe8383168b611df3565b52611e5d565b80611e8d565b509690929750600591500494600586069060ff806001611f2989611c75565b9a011693919050611e24565b965050505050505056fea2646970667358221220ccfedeeaee5c6d9843a3e92a88411faca88cddea9d782ce298b4f715eda3d47e64736f6c63430008180033a2646970667358221220f4eec47fe9ac139f08b7ea95897b989ef3f121fc5980577823a4fa2ff4bd70ae64736f6c63430008180033",
  "libraries": {
    "PoseidonT3": "0x9A9f2CCfdE556A7E9Ff0848998Aa4a0CFD8863AE",
    "PoseidonT4": "0x68B1D87F95878fE05B998F19b66F4baba5De1aed",
    "PoseidonT5": "0x3Aa5ebB10DC797CAC828524e59A333d0A371443c",
    "PoseidonT6": "0xc6e7DF5E7b4f2A278906862b61205850344D4e7d"
  },
  "devdoc": {
    "kind": "dev",
    "methods": {
      "deploy(address,address,address,address,address,uint8)": {
        "params": {
          "_messageProcessor": "MessageProcessor contract",
          "_mode": "Voting mode",
          "_owner": "Owner of the contract",
          "_poll": "Poll contract",
          "_verifier": "Verifier contract",
          "_vkRegistry": "VkRegistry contract"
        },
        "returns": {
          "tallyAddr": "The deployed contract"
        }
      }
    },
    "title": "TallyFactory",
    "version": 1
  },
  "userdoc": {
    "kind": "user",
    "methods": {
      "MESSAGE_DATA_LENGTH()": {
        "notice": "the length of a MACI message"
      },
      "deploy(address,address,address,address,address,uint8)": {
        "notice": "Deploy a new Tally contract and return the address."
      }
    },
    "notice": "A factory contract which deploys Tally contracts.",
    "version": 1
  },
  "storageLayout": {
    "storage": [],
    "types": null
  }
}