{
  "address": "0x0B306BF915C4d645ff596e518fAf3F9669b97016",
  "abi": [
    {
      "inputs": [],
      "name": "InvalidInputVal",
      "type": "error"
    },
    {
      "inputs": [],
      "name": "InvalidProofQ",
      "type": "error"
    },
    {
      "inputs": [],
      "name": "PairingAddFailed",
      "type": "error"
    },
    {
      "inputs": [],
      "name": "PairingMulFailed",
      "type": "error"
    },
    {
      "inputs": [],
      "name": "PairingOpcodeFailed",
      "type": "error"
    },
    {
      "inputs": [],
      "name": "PRIME_Q",
      "outputs": [
        {
          "internalType": "uint256",
          "name": "",
          "type": "uint256"
        }
      ],
      "stateMutability": "view",
      "type": "function"
    },
    {
      "inputs": [
        {
          "internalType": "uint256[8]",
          "name": "_proof",
          "type": "uint256[8]"
        },
        {
          "components": [
            {
              "components": [
                {
                  "internalType": "uint256",
                  "name": "x",
                  "type": "uint256"
                },
                {
                  "internalType": "uint256",
                  "name": "y",
                  "type": "uint256"
                }
              ],
              "internalType": "struct Pairing.G1Point",
              "name": "alpha1",
              "type": "tuple"
            },
            {
              "components": [
                {
                  "internalType": "uint256[2]",
                  "name": "x",
                  "type": "uint256[2]"
                },
                {
                  "internalType": "uint256[2]",
                  "name": "y",
                  "type": "uint256[2]"
                }
              ],
              "internalType": "struct Pairing.G2Point",
              "name": "beta2",
              "type": "tuple"
            },
            {
              "components": [
                {
                  "internalType": "uint256[2]",
                  "name": "x",
                  "type": "uint256[2]"
                },
                {
                  "internalType": "uint256[2]",
                  "name": "y",
                  "type": "uint256[2]"
                }
              ],
              "internalType": "struct Pairing.G2Point",
              "name": "gamma2",
              "type": "tuple"
            },
            {
              "components": [
                {
                  "internalType": "uint256[2]",
                  "name": "x",
                  "type": "uint256[2]"
                },
                {
                  "internalType": "uint256[2]",
                  "name": "y",
                  "type": "uint256[2]"
                }
              ],
              "internalType": "struct Pairing.G2Point",
              "name": "delta2",
              "type": "tuple"
            },
            {
              "components": [
                {
                  "internalType": "uint256",
                  "name": "x",
                  "type": "uint256"
                },
                {
                  "internalType": "uint256",
                  "name": "y",
                  "type": "uint256"
                }
              ],
              "internalType": "struct Pairing.G1Point[]",
              "name": "ic",
              "type": "tuple[]"
            }
          ],
          "internalType": "struct SnarkCommon.VerifyingKey",
          "name": "vk",
          "type": "tuple"
        },
        {
          "internalType": "uint256",
          "name": "input",
          "type": "uint256"
        }
      ],
      "name": "verify",
      "outputs": [
        {
          "internalType": "bool",
          "name": "isValid",
          "type": "bool"
        }
      ],
      "stateMutability": "view",
      "type": "function"
    }
  ],
  "transactionHash": "0xbe25f1e066e6d5d6818a0c1bd874fa7580afb588f19a2822e987267c1a9f5df4",
  "args": [],
  "numDeployments": 1,
  "solcInputHash": "d4edc97ed9e4f18935e5ac94c4119edc",
  "bytecode": "0x6080806040523461001657610a64908161001c8239f35b600080fdfe60406080604052600436101561001457600080fd5b600090813560e01c91826322b72c941461003e575050638d5329081461003957600080fd5b610323565b346101775760031990610140368301126101775736602312156101775761006436610223565b92610104359167ffffffffffffffff9384841161017a576101e090843603011261017757610090610198565b9361009e3685600401610273565b85526100ad36604486016102d7565b9360209460208701526100c33660c483016102d7565b60408701526100d63661014483016102d7565b60608701526101c481013591821161017e5701923660238501121561017a57600484013561010b6101068261030b565b6101fd565b946024602087848152019260061b820101933685116101775750602401905b83821061015f5761015b61014989898960808201526101243591610456565b60405190151581529081906020820190565b0390f35b82859161016c3685610273565b81520191019061012a565b80fd5b5080fd5b8280fd5b634e487b7160e01b600052604160045260246000fd5b6040519060a0820182811067ffffffffffffffff8211176101b857604052565b610182565b604051906040820182811067ffffffffffffffff8211176101b857604052565b604051906080820182811067ffffffffffffffff8211176101b857604052565b6040519190601f01601f1916820167ffffffffffffffff8111838210176101b857604052565b9060405191610100830183811067ffffffffffffffff8211176101b8576040528261010491821161026e576004905b82821061025e57505050565b8135815260209182019101610252565b600080fd5b919082604091031261026e5760206102896101bd565b928035845201356020830152565b9080601f8301121561026e576102ab6101bd565b80926040810192831161026e57905b8282106102c75750505090565b81358152602091820191016102ba565b919060808382031261026e576103049060406102f16101bd565b946102fc8382610297565b865201610297565b6020830152565b67ffffffffffffffff81116101b85760051b60200190565b3461026e57600036600319011261026e5760206040517f30644e72e131a029b85045b68181585d97816a916871ca8d3c208c16d87cfd478152f35b604051906020820182811067ffffffffffffffff8211176101b8576040526020368337565b61038b6101bd565b906103946101bd565b604036823782526103a36101bd565b60403682376020830152565b604051906060820182811067ffffffffffffffff8211176101b857604052816103d66101bd565b600081526000602082015281526103eb610383565b602082015260406103fa6101bd565b9160008352600060208401520152565b634e487b7160e01b600052603260045260246000fd5b8051600110156104305760400190565b61040a565b8051156104305760200190565b80518210156104305760209160051b010190565b9061045f6103af565b91805192602093848301516104726101bd565b9182528582015281526104836101bd565b936040830151855260608301518186015261049c6101bd565b6080840151815260a0840151828201526104b46101bd565b9586528186015280820194855260e060c08401519301516104d36101bd565b93845281840152604082019283526104ec8251516105ff565b6104f981835101516105ff565b610505855151516105ff565b6105138186510151516105ff565b61052861052286515160200190565b516105ff565b610539610522828751015160200190565b6105448351516105ff565b61055181845101516105ff565b7f30644e72e131a029b85045b68181585d2833e84879b9709143e1f593f00000018610156105ed576105ce6105c76105ea976105c06105b96105916101bd565b600081526000878201526105b360808b01946105ad8651610420565b5161063a565b906106ae565b9151610435565b51906106ae565b925161071a565b94519084519085015191606060408701519551960151966108b6565b90565b60405163076be92360e31b8152600490fd5b7f30644e72e131a029b85045b68181585d97816a916871ca8d3c208c16d87cfd47111561062857565b6040516308f69c9160e01b8152600490fd5b91906106446101bd565b60008152600060208201528093604051606081019381851067ffffffffffffffff8611176101b8576020608093606096604052863685378051845201516020830152604082015260076107cf195a01fa1561069b57565bfe5b9060048110156104305760051b0190565b60609092919260c06106be6101bd565b91600083526000602084015260208396816106d76101dd565b936080368637805185520151828401528051604084015201518482015260066107cf195a01fa1561069b57565b634e487b7160e01b600052601160045260246000fd5b600060206107266101bd565b828152015280519081158061079d575b156107535750506107456101bd565b600081526000602082015290565b602001517f30644e72e131a029b85045b68181585d97816a916871ca8d3c208c16d87cfd479081900681039081116107985761078d6101bd565b918252602082015290565b610704565b50602081015115610736565b6107b16101dd565b906000805b608081106107c2575050565b6020906107cd6101bd565b838152838382015281860152016107b6565b6107e76101dd565b9060005b608081106107f65750565b602090610801610383565b81850152016107eb565b60405190610320820182811067ffffffffffffffff8211176101b85760405260188252610300366020840137565b60ff60069116029060ff821691820361079857565b60ff169060ff821161079857565b60ff60019116019060ff821161079857565b60ff60029116019060ff821161079857565b60ff60039116019060ff821161079857565b60ff60049116019060ff821161079857565b60ff60059116019060ff821161079857565b9590979693949291946108c76107a9565b96875260209586880152604087015260608601526108e36107df565b96875283870152604086015260608501526108fc61080b565b9060005b60ff908181166004811015610a025790856109fa6109f46109546109ed886109e4888f8d61097c8561096660019e6109378f610839565b9d8e61096061095a61095461094c868661069d565b51519361084e565b60ff1690565b88610442565b5261069d565b510151916109766109548d61085c565b90610442565b528d61099b61098b848461069d565b515151916109766109548d61086e565b528d6109c36109b56109ad858561069d565b515160200190565b51916109766109548d610880565b528d610960856109d3858561069d565b51015151916109766109548d610892565b51015160200190565b51936108a4565b87610442565b520116610900565b505050929350829150610300610a1661035e565b9384920160086107cf195a01fa1561069b575115159056fea26469706673582212201b211fd3e788d84287c0c410eb3ae786247505b2ebe1dbce15385b06e9ec024c64736f6c63430008180033",
  "devdoc": {
    "kind": "dev",
    "methods": {
      "verify(uint256[8],((uint256,uint256),(uint256[2],uint256[2]),(uint256[2],uint256[2]),(uint256[2],uint256[2]),(uint256,uint256)[]),uint256)": {
        "params": {
          "_proof": "The proof",
          "input": "The public inputs to the circuit",
          "vk": "The verifying key"
        },
        "returns": {
          "isValid": "Whether the proof is valid given the verifying key and public          input. Note that this function only supports one public input.          Refer to the Semaphore source code for a verifier that supports          multiple public inputs."
        }
      }
    },
    "title": "Verifier",
    "version": 1
  },
  "userdoc": {
    "errors": {
      "InvalidProofQ()": [
        {
          "notice": "custom errors"
        }
      ],
      "PairingAddFailed()": [
        {
          "notice": "custom errors"
        }
      ]
    },
    "kind": "user",
    "methods": {
      "verify(uint256[8],((uint256,uint256),(uint256[2],uint256[2]),(uint256[2],uint256[2]),(uint256[2],uint256[2]),(uint256,uint256)[]),uint256)": {
        "notice": "Verify a zk-SNARK proof"
      }
    },
    "notice": "a Groth16 verifier contract",
    "version": 1
  },
  "storageLayout": {
    "storage": [],
    "types": null
  }
}